:020000040800F2
:10000000E01B002085020008AB2A000873280008C6
:10001000A92A000805070008992D00080000000023
:10002000000000000000000000000000ED010008DA
:10003000570700080000000031020008FD2A0008F0
:100040009F0200089F0200089F0200089F0200080C
:100050009F0200089F0200089F0200089F020008FC
:100060009F0200089F0200089F0200082107000865
:100070009F0200089F0200089F0200089F020008DC
:100080009F0200089F0200089F0200089F020008CC
:100090009F0200089F0200089F0200089F020008BC
:1000A0009F0200089F0200089F0200089F020008AC
:1000B0009F0200089F0200089F0200089F0200089C
:1000C0009F0200089F0200089F0200089F0200088C
:1000D0009F0200089F0200089F0200089F0200087C
:1000E0009F0200089F0200089F0200080000000015
:1000F0000000000000000000000000000000000000
:1001000000000000000000009F0200089F0200089D
:100110009F0200089F0200089F020008B12B000800
:100120009F0200089F0200089F0200089F0200082B
:100130009F020008000000000000000015070008F2
:10014000090700089F0200089F0200089F0200089C
:1001500000F002F800F03AF80AA090E8000C82449F
:100160008344AAF10107DA4501D100F02FF8AFF27C
:10017000090EBAE80F0013F0010F18BFFB1A43F085
:1001800001031847743D0000943D0000103A24BF5D
:1001900078C878C1FAD8520724BF30C830C144BFEC
:1001A00004680C607047000000230024002500262E
:1001B000103A28BF78C1FBD8520728BF30C148BFCA
:1001C0000B6070471FB51FBD10B510BD00F04DF995
:1001D0001146FFF7F7FF02F005FE00F06BF903B4DC
:1001E000FFF7F2FF03BC00F073F90000224B19681F
:1001F0000868B0E8F00F80F30988BFF36F8F4FF005
:10020000000080F311884EF00D0E704700000000D2
:1002100006480068006880F3088862B661B6BFF3DC
:100220004F8FBFF36F8F00DF00BF00BF08ED00E00E
:10023000EFF30980BFF36F8F0F4B1A6820E9F00FBF
:10024000106008B54FF0500080F31188BFF34F8F56
:10025000BFF36F8F03F0BAF94FF0000080F31188FD
:10026000BDE8084019680868B0E8F00F80F3098815
:10027000BFF36F8F704700BF3C000020EFF3058095
:10028000704700000948804709480047FEE7FEE73D
:10029000FEE7FEE7FEE7FEE7FEE7FEE7FEE7FEE736
:1002A00004480549054A064B70470000AD2B00087D
:1002B00051010008E0150020E01B0020E01700209D
:1002C000E017002053EA020C00F069802DE9F04BA2
:1002D0004FF00006002B1FBFB3FA83F503FA05F4B5
:1002E00024FA05F65E4012BF1643B2FA82F502FA0E
:1002F00005F4C5F120051EBF22FA05FC44EA0C04F2
:10030000203556EA044C4FEA144418BF641C4FF0E1
:1003100000084FF00009904271EB030C39D300291B
:1003200019BFB1FA81F701FA07F6B0FA80F700FABF
:1003300007F6C7F120071EBF20FA07FC46EA0C06A5
:100340002037B6FBF4FCA7EB0507103F07F01F0BA7
:10035000CBF120060CFA0BFB2CFA06F644BFB34691
:100360000026202FA4BF5E464FF0000B5BEA060C70
:1003700008BF4FF0010B19EB0B09ABFB027C48EBFC
:100380000608C01B06FB02CC0BFB03CC71EB0C0177
:10039000C1E70B46024641464846BDE8F08B13B51F
:1003A0004FF000004FF00001AFF30080BDE81C40AB
:1003B000704710B5203AC0F00B80B1E81850203AD1
:1003C000A0E81850B1E81850A0E81850BFF4F5AFF5
:1003D0005FEA027C24BFB1E81850A0E8185044BF7F
:1003E00018C918C0BDE810405FEA827C24BF51F8EC
:1003F000043B40F8043B08BF7047D20728BF31F8E0
:10040000023B48BF11F8012B28BF20F8023B48BF30
:1004100000F8012B70474FF0000200B513469446D8
:100420009646203922BFA0E80C50A0E80C50B1F14C
:100430002001BFF4F7AF090728BFA0E80C5048BF60
:100440000CC05DF804EB890028BF40F8042B08BFFE
:10045000704748BF20F8022B11F0804F18BF00F8FA
:10046000012B7047704770477047754600F02CF8B5
:10047000AE4605006946534620F00700854618B091
:1004800020B5FFF70DFFBDE820404FF000064FF00C
:1004900000074FF000084FF0000B21F00701AC46B9
:1004A000ACE8C009ACE8C009ACE8C009ACE8C009D8
:1004B0008D46704710B50446AFF300802046BDE876
:1004C0001040FFF78CBE0000004870477C150020EC
:1004D00001491820ABBEFEE726000200704700006D
:1004E00070B5044600688168C943C90717D181689F
:1004F00021F00101816001F017FA05460AE000BF12
:1005000001F012FA401B022804D920688068C04319
:10051000C00706D020688068C043C007F0D0002024
:1005200070BDA06A40F01000A062E06A40F00100D7
:10053000E062012070BD10B50146406A826A12F087
:10054000500F05D0006A026BBDE810400846104706
:10055000816A41F40071816201688968C1F3424196
:1005600007290CD1017B51B9816A21F48071816224
:10057000816AC90403D4816A41F00101816200F0FB
:10058000D7F910BD10B5406A816A41F0400181621F
:10059000C16A41F00401C16200F0DDF910BD10B57F
:1005A000406A00F0D7F910BDF8B500260446009661
:1005B00000688168C943C9072DD0816841F00101F5
:1005C0008160164816490068B0FBF1F000E0401E5B
:1005D00000900028FBD101F0A7F9054616E000BF06
:1005E00001F0A2F9401B022810D920688068C0439E
:1005F000C0070BD0A06A40F01000A062E06A40F093
:100600000100E06284F824600120F8BD2068806861
:10061000C043C007E4D10020F8BD0000380000202E
:1006200040420F000648818806480F2901D3012265
:1006300002E0052903D80022402101F06FB970477C
:1006400000000020000801402DE9F041284C2078EE
:1006500000284BD0002104F1100021700288228173
:100660004288A28101804180608903F093FA0546A7
:10067000208903F08FFA1F4E01462A46304602F0C9
:100680009CFB03F067FA6080E08903F083FA05467B
:10069000A08903F07FFA01462A46304602F08DFB1E
:1006A00003F058FA85B2A58020896081A089E08195
:1006B000608803F06FFA104E314603F07FFA0F4F57
:1006C000394603F085F9A061284603F063FA314604
:1006D00003F074FA394603F07BF9606104F110010C
:1006E000BDE8F0410222064800F00ABABDE8F081F8
:1006F00000000020CDCC4C3E0000C84200F07F45F9
:10070000F8000020FEE70000014800F0ACBB00004C
:1007100028010020014800F0A6BB000028010020AD
:10072000014800F071BE0000AC01002030B590F827
:1007300040500124AC40C56B6C6004686360436842
:10074000102B036803D099600068C26030BD9A60C6
:100750000068C16030BD704772B6FEE7F8B500258D
:100760000446009590F8240001280BD0012084F85D
:1007700024002046FFF7B4FE2046FFF715FF0600D1
:1007800002D050E00220F8BDA06A20F4885040F06A
:100790000200A062022001F097F925490968B1FB27
:1007A000F0F0400000E0401E00900028FBD12068DF
:1007B000816841F00801816001F0B6F8074608E061
:1007C00001F0B2F8C01B0A2803D92068806800072E
:1007D00015D4206880680007F2D42068816841F051
:1007E0000401816001F0A0F8074612E001F09CF8D6
:1007F000C01B0A280DD920688068400709D5A06A67
:1008000020F0020040F01000A06284F82450012083
:10081000F8BD206880684007E8D4A06A20F0020094
:1008200040F00100A06284F824503046F8BD00007A
:1008300038000020F8B50024009490F824202546C4
:10084000012A12D0012280F824204A681F23072A97
:100850000DD20668776B521E02EB820293409F43D3
:100860000B6893401F43776319E00220F8BD0668C8
:100870000D2A0AD2376BD21F02EB820293409F43AC
:100880000B6893401F43376309E0F76A0D3A02EBA8
:10089000820293409F430B6893401F43F7620A68AC
:1008A000072306680A2A0AD3F7680A3A02EB4202CB
:1008B00093409F438B6893401F43F76008E037697C
:1008C00002EB420293409F438B6893401F43376182
:1008D0000A68102A01D0112A20D1124B02689A42CC
:1008E00017D193681B0219D4936843F400039360F3
:1008F0000968102912D10C490C4A0968B1FBF2F1C0
:1009000001EB8101490000E0491E00910029FBD163
:1009100004E0816A41F020018162012480F82450C2
:100920002046F8BD002401403800002040420F005E
:1009300010B500680449884205D1044800F066F902
:1009400003490120087010BD00240140F800002078
:1009500000000020704770472DE9F0414FF000077C
:1009600004003D467ED0A06A002628B9E66284F8DD
:100970002460204600F07EF82046FFF7B1FDA16A12
:10098000C90600D420B1A06A40F01000A06269E05E
:10099000A16A21F4885141F00201A1626268E16913
:1009A000237B0A4347EA43010A43A1684FF4807757
:1009B000B94209D0012907D05FF0000194F814C0B2
:1009C000BCF1010F02D00AE03946F7E7F3B1A36AA0
:1009D00043F02003A362E36A43F00103E362236868
:1009E000D3F804C02CF4694C4CEA010CC3F804C0E1
:1009F00021688B68DFF870C003EA0C0313438B6037
:100A0000A168B9420BD0012909D00CE0DFF85CC025
:100A1000A3690CEB43330B4343F40061DFE7218A06
:100A20000D05A5F580152168CB6A23F470032B43CF
:100A3000CB62216889680E4B1940914208D1E66269
:100A4000A16A21F0020141F00101A162BDE8F0813B
:100A5000A06A20F0020040F01000A062E06A40F0BE
:100A60000100E0620120F1E7FDF7E1FF00E0FFFF98
:100A7000FE0E1FFF70B586B0002506460095019555
:100A8000029503950068194988422CD11849886954
:100A900040F400708861886900F4007004908869EF
:100AA00040F0080088618869694600F008000490F9
:100AB0000320009001900F4800F040FE0F4C0E48BC
:100AC000C4E900058020C4E9025040002061800094
:100AD000C4E905052046E56100F0BAFD08B1FFF75D
:100AE0003BFE3462666206B070BD00000024014027
:100AF00000100240000C014008000240AC01002040
:100B00002DE9F047894604463B4900683B4F0E1DDE
:100B10009046884201D0B84207D1306810F4702F57
:100B200003D001252846BDE8F08794F82400012869
:100B30000CD0012084F824002046FFF735FD050085
:100B40004FF0000004D084F82400EBE70220EAE72D
:100B5000A16A40F60162914341F48071A16221686B
:100B6000B94218D1326812F4702F14D0A16A41F43E
:100B70008011A1623168490505D5A16A21F40051AF
:100B800041F48051A162A16AC9040AD5E16A21F049
:100B90000601E16206E0A26A22F48012A2624968BC
:100BA000E9E7E06284F82400216A15488862216A36
:100BB0001448C862216A1448086321686FF0020073
:100BC00008602068816841F4807181602168434633
:100BD0004A464C31206A00F079FD20688168C1F3F3
:100BE00042410729816803D041F48011816099E76F
:100BF00041F4A001FAE70000002401400028014070
:100C0000370500089F0500088505000810B5044653
:100C100090F82400012807D0012084F82400204601
:100C2000FFF75EFC10B107E0022010BDA16A21F4BD
:100C3000885141F00101A162002184F8241010BD07
:100C400090F82020012A07D0022A05D0416A41F4F9
:100C50008021416201207047006842690A43426175
:100C60000020704710B590F82020012A07D0022AF2
:100C700005D0416A41F480214162012010BD3B480A
:100C8000D0F8002242F00102C0F80022D0F8002281
:100C900022F47C52C0F80022D0F800224B6A42EACB
:100CA0000322C0F800220A7D02F01F0301229A40AD
:100CB000D0F81C329343C0F81C32CB69B3B9D0F8DA
:100CC0000C329343C0F80C328C894B6864F31F4399
:100CD0004C6900EBC404C4F840320C890B6864F31F
:100CE0001F434C6900EBC404C4F84432CB69012BA8
:100CF00016D1D0F80C321343C0F80C320C884B6874
:100D000064F31F434C6900EBC404C4F840320C89FF
:100D1000CB6864F31F434C6900EBC404C4F844324D
:100D20008B69002BD0F804320ED01343C0F8043284
:100D30000B69002BD0F8143208D01343C0F81432DA
:100D4000096A012904D008E09343EFE79343F5E7EC
:100D5000D0F81C121143C0F81C12D0F8001221F078
:100D60000101C0F80012002010BD00000064004026
:100D7000704770B590F82040012C05D0022C03D0AC
:100D8000416A41F4802128E0046809B32469A4077A
:100D900020D04FF4D874056804EB01142D5915F0D8
:100DA0000405956005682D591AD0ED085560056851
:100DB0002C5904F00204D4604FF4DA74056804EB93
:100DC00001142E5906F00F06082E0CD308250DE04D
:100DD000E468DCE7416A41F400114162012070BD22
:100DE0006D0D1560E3E72D5905F00F0515610568D8
:100DF0002D59C5F30725956105682C59240C5461BC
:100E00004FF4DC72046802EB0112A4581C700468F1
:100E1000A458240A5C700468A458240C9C700468CC
:100E2000A258120EDA704FF4DE72046802EB01125F
:100E3000A4581C710468A458240A5C710468A4585E
:100E4000240C9C710468A258120EDA71006829B152
:100E5000016941F020010161002070BDC16841F0CD
:100E60002001C160F8E72DE9F05F05460068002425
:100E70004669D0F804908768D0F80CB0D0F810A07C
:100E8000D0F81880F10748D0F90714D0012181600B
:100E9000B80703D5284600F008FA0CE0780702D519
:100EA0004FF4006407E0380702D54FF4805402E0A5
:100EB000284600F0F9F9F80516D529684FF4807036
:100EC0008860B80503D5284600F0F1F90CE07805F4
:100ED00002D544F4005407E0380502D544F48044B8
:100EE00002E0284600F0E2F9F80316D529684FF42D
:100EF00080308860B80303D5284600F0DAF90CE0AA
:100F0000780302D544F4004407E0380302D544F4E2
:100F1000803402E0284600F0CBF9300707D55FEABD
:100F2000CB6004D52968102044F40074C8607007B1
:100F30004FF0080707D55FEA0B7004D52868C76033
:100F4000284600F069F9B00706D52868C068800710
:100F500002D0284600F062F9700607D55FEACA6041
:100F600004D52968102044F480640861B00607D5D0
:100F70005FEA0A7004D528680761284600F064F922
:100F8000F00606D528680069800702D0284600F0E0
:100F90005CF9B00308D55FEAC96005D5296810205F
:100FA0004860284600F052F9F00307D55FEA09705F
:100FB00004D528684760284600F07CF9300446D5FF
:100FC0005FEA497040D5F00504D55FEAC87001D0EA
:100FD00044F00104B00504D55FEA887001D544F0FF
:100FE0000204700504D55FEA487001D544F004049A
:100FF000300529D518F0700F26D008F07000402871
:1010000015D006DC102809D020280AD0302816D1A7
:101010000AE050280ED0602811D10EE044F00804F8
:101020000DE044F010040AE044F0200407E044F02E
:10103000400404E044F0800401E044F48074286833
:10104000816921F070018161296804204860002CC9
:1010500005D0686A204368622846FFF789FEBDE82C
:10106000F09F70B5040003D094F8200010B104E0A4
:10107000012070BD204600F081F82068016841F031
:101080000101016000F050FC0546052604E000F077
:101090004BFC401B0A2811D820684068C007F6D0D6
:1010A0002068016821F00201016000F03DFC054666
:1010B0000BE000F039FC401B0A2806D9606A40F4B6
:1010C0000030606284F82060D2E7206840688007C2
:1010D000EFD4207E0128206801683DD021F08001F6
:1010E0000160607E01282068016838D021F040014D
:1010F0000160A07E01282068016833D021F0200122
:101100000160E07E0128206801682ED041F01001C6
:101110000160207F01282068016829D021F00801A2
:101120000160607F01282068016824D021F004015B
:101130000160D4E902010843D4E9041211430843D1
:101140006168491E08432168C8610020606201206F
:1011500084F82000002070BD41F08001C0E741F01C
:101160004001C5E741F02001CAE721F01001CFE7B7
:1011700041F00801D4E741F00401D9E710B586B089
:101180000021009101910291039100681F4988425A
:101190003AD11F48C16941F08061C161C16901F064
:1011A00080610491C16941F00071C161C16901F0C0
:1011B00000710491816941F0080181618069154CD9
:1011C00000F0080004904FF48050009069462046DB
:1011D00000F0B4FA60140090022001900320039004
:1011E0006946204600F0AAFA002205213F2000F0BF
:1011F00039FC3F2000F028FC00220521402000F0AF
:1012000031FC402000F020FC06B010BD006800401A
:1012100000100240000C01407047000010B5084B60
:10122000084A0021FFF7A5FD06480068B0F5807F59
:1012300004D10348024924390078487010BD0000E9
:1012400024000020B4000020704770477047000061
:1012500070B5044690F82000012804D0606A40F47C
:101260000020606218E0022084F8200020680168F5
:1012700021F00101016000F057FB05460EE000BFC0
:1012800000F052FB401B0A2808D9606A40F4003085
:101290006062052084F82000012070BD206840684D
:1012A000C007EDD1606270BD7047704770477047EE
:1012B00070477047704770B500B3F9B14379012B9F
:1012C0001ED0012646710223037105682C6802F0C6
:1012D000100340F6FE729A409443D1E900210A437C
:1012E0009A4022432A6001680A68C0249C40A243B5
:1012F0000A60067100214171084670BD012070BD71
:10130000022070BD70B5040003D02079002510B113
:1013100005E0012070BD6571204600F007F802204D
:101320002071256101202071002070BD00B585B0BD
:101330000021009101910291039100680E498842B9
:1013400018D10E48C16941F00051C161C16901F075
:1013500000510491816941F004018161806969460D
:1013600000F0040004901020009003200190044835
:1013700000F0E4F905B000BD007400400010024028
:101380000008014018B50024009440B100680090A6
:10139000104431B1143000900360002018BD0120CA
:1013A00018BD0830F7E770B508B34279012A20D09C
:1013B00001224271022303710468266801F01003C0
:1013C00002FA03F52E4326600029016813D00C6849
:1013D00004F470153C249C40A54203D14B6843F0B3
:1013E00002034B60027100214171084670BD01206B
:1013F00070BD022070BD0B68C3F383030F2BF1D1C6
:101400004B6843F00103ECE72DE9F05FC16B0A681C
:1014100001680B68046C4FF0040808FA04F8844D66
:10142000844E854FDFF814C2DFF81492DFF814A25F
:10143000DFF814B2DFF814E218EA020F65D05FEAB1
:10144000437862D50A68920603D40A6822F004023F
:101450000A60DFF8F0814FF48062016808F1140837
:1014600013011402414524D9A9420DD0B1420FD035
:10147000B9421AD0614515D0494515D0514501D121
:10148000120312E0594501D104220EE0714501D149
:1014900040220AE06D4D1435A94206D06B4A28322D
:1014A000914201D11A4600E022466749091F0A60AD
:1014B00029E0A94213D0B14215D0B94220D06145EC
:1014C0001BD049451BD0514502D14FF4800217E093
:1014D000414502D14FF0806212E0594501D104220A
:1014E0000EE0714501D140220AE0584D1435A94261
:1014F00006D0564A2832914201D11A4600E02246CF
:101500004B4908394A60C16A71E04FF0020808FA95
:1015100004F818EA020F70D05FEA83786DD50A6884
:10152000920606D40A6822F00A020A60012180F8B5
:101530002110DFF810814FF40072016808F11408DF
:1015400013011402414524D9A9420DD0B1420FD054
:10155000B9421AD0614515D0494515D0514501D140
:10156000120312E0594501D102220EE0714501D16A
:1015700020220AE0354D1435A94206D0334A2832DC
:10158000914201D11A4600E022462F49091F0A6004
:1015900029E0A94213D0B14215D0B94220D061450B
:1015A0001BD049451BD0514502D14FF4001217E022
:1015B000414502D14FF0007212E0594501D102229B
:1015C0000EE0714501D120220AE0204D1435A942D8
:1015D00006D01E4A2832914201D11A4600E0224626
:1015E000134908394A60002180F82010816A0029D7
:1015F0001CD0BDE8F05F0847FFE70825A54015426D
:1016000014D01A0712D50A6822F00E020A6090F868
:101610004020C36B012101FA02F25A60816380F815
:101620002110002180F82010016BE0E7BDE8F09F59
:10163000080002401C00024030000240440002400A
:10164000580002406C000240080402401C040240A2
:1016500030B560B11A4B026814219A4209D2194B75
:101660001344B3FBF1F18900016417490AE001203A
:1016700030BD134B5B421344B3FBF1F189000164AD
:101680000F490839C163022180F82110136843F61D
:10169000F0718B43F0E901142143D0E902452C435A
:1016A0002143046921434469214384692143194347
:1016B000116000214163012242770177084630BD65
:1016C00008040240F8FFFDBF0000024070B5044668
:1016D00090F82000002501280CD0012084F820007B
:1016E00094F821600020012E06D084F82000022505
:1016F000284670BD022070BD022684F82160A063D8
:101700002068066826F0010606602046FFF70EF8FE
:10171000E06A00282068016802D041F00E0106E06E
:1017200021F0040101602068016841F00A010160B4
:101730002068016841F001010160D9E72DE9F84F07
:10174000DFF8B8910024A9F1040B23460F2709F113
:10175000040AABF1040EC9E00125A5402A40AA42C3
:101760007DD1674ED1F804C0ACEB0608B44532D049
:1017700014DCBCF1030F3AD009DCBCF1000F2AD015
:10178000BCF1010F1CD0BCF1020F31D11DE0BCF146
:10179000110F17D0BCF1120F2AD119E0B8F5881F2C
:1017A00019D006DCB8F5803F15D0B8F5801F1FD1E1
:1017B00011E0B8F5001F0ED0B8F5041F18D10AE0EB
:1017C000CB6815E0CB681B1D12E0CB6808330FE037
:1017D000CB680C330CE08B682BB1012B4FF0080366
:1017E00003D0456104E0042302E0056100E000232A
:1017F000FF2A01D8064601E000F104064FEA8405FD
:1018000001D9A5F12005D6F8008007FA05FC28EAE1
:101810000C0803FA05F548EA0508C6F800804D688B
:10182000ED0062D5374DAE6946F00106AE61AD6997
:1018300024F0030605F001050095334D06EB050C79
:10184000DCF80850A607360F07FA06F825EA08055F
:10185000DFF8B880404503D14FF0000817E044E0BE
:10186000DFF8AC80404502D14FF001080FE0DFF80F
:10187000A480404502D14FF0020808E0DFF89880CC
:10188000404502D14FF0030801E04FF0040808FA88
:1018900006F848EA0508CCF808804D68D9F80060D9
:1018A000ED024D4601D5164300E096432E604D688B
:1018B000DAF80060AD02554601D5164300E09643C4
:1018C0002E604D68DBF80060AD035D4601D5164320
:1018D00000E096432E604D68DEF80060ED0375462B
:1018E00001D5164300E096432E60641C0D682A461D
:1018F000E5407FF431AFBDE8F88F000008040140F7
:1019000000001110001002400000014000080140DA
:10191000000C014000100140001401400AB10161B7
:1019200070470904FBE70000014880687047000029
:101930002C000020024881680278114481607047C1
:101940002C000020074810B5016841F0100101602B
:10195000032000F0A7F80F2000F006F800F050F880
:10196000002010BD0020024030B505461F4887B05A
:10197000C16941F02001C161C06906A900F02000E1
:10198000009001A800F07EFA0498B0B100F09AFA35
:1019900040001749174AB0FBF1F11748491E026091
:1019A000416040F2E7320021C0E90321816081619A
:1019B00000F01CFD040003D015E000F083FAE8E716
:1019C0000D4800F041FD04000DD1372000F03CF837
:1019D000102D07D200222946372000F043F807488F
:1019E000056000E0012407B0204630BD0010024031
:1019F00040420F000014004044040020300000204A
:101A00000F4808B5816941F001018161816901F0E8
:101A100001010091C16941F08051C161C06900229A
:101A200000F0805000900F21901E00F01BF8054838
:101A3000416821F0E06141F00071416008BD0000A3
:101A40000010024000000140002809DB00F01F02E6
:101A5000012191404009800000F1E020C0F8001110
:101A600070470000F0B40E4B1B680C46C3F3022312
:101A7000C3F10705042D00D90425191D072901D23A
:101A8000002300E0DB1E012606FA05F1491E214075
:101A900099409E40761E16403143F0BC01F07DB95E
:101AA0000CED00E0064900F0070208684FF6FF035E
:101AB000184040EA0220034A1043086070470000C3
:101AC0000CED00E00000FA0570B5014600203C4A2C
:101AD0003C4C04293FD00BDC012957D0022939D1D5
:101AE00000F000FA6168C1F38131491C49002FE020
:101AF000082943D010292DD163682168C90129D54F
:101B00003148C3F38341415CD8031AD5E06A2E4BB8
:101B100000F00F000E33185CE36ADB030AD5E36ABA
:101B2000E56AC3F303135B1CB2FBF3F2C5F30325B1
:101B3000AD1C6A43B2FBF0F048430D2903D14008C5
:101B400001E0224848436168490203D44000032170
:101B5000B0FBF1F070BDE16A890311E02168C900B2
:101B6000F8D5E06AE16AC0F30310401CB2FBF0F064
:101B7000C1F30331891C4843400070BDE16A490349
:101B80000029EBDBBDE8704000F0BCB9226AC2F36B
:101B90000121012903D1920701D5C80370BD022993
:101BA00005D1626A920702D549F6404070BD03290B
:101BB000FCD121688903F9D54FF2244070BD0000A3
:101BC00000127A0000100240AA3E000800093D0001
:101BD0002DE9F843044600785B4DC0074FF001093A
:101BE00051D0E8690026C00008D4E86940F0805070
:101BF000E861E869012600F08050009053480168D0
:101C0000C90512D40168804641F480710160FFF774
:101C10008BFE074605E000BFFFF786FEC01B642869
:101C200077D8D8F80000C005F6D5286A10F44070BF
:101C30001ED0A18801F44071814219D0286A44491C
:101C400020F44070C1F8009000220A602862C007AA
:101C50000ED0FFF769FE074641F2883805E000BF65
:101C6000FFF762FEC11B414553D8286A8007F7D5AC
:101C7000286A616820F44070084328621EB1E86950
:101C800020F08050E8612078800705D56868A16859
:101C900020F44040084368602078400705D5E86A92
:101CA000E16820F400300843E8622078000705D599
:101CB000E86A216920F480200843E862E86A80032A
:101CC00002D4E86A400333D52868C00028D42868C5
:101CD000400105D5E86AA16900F0F000884225D1ED
:101CE000E86AA16920F0F0000843E862E86A6169E7
:101CF00020F470400843E8621649C1F87090FFF77D
:101D000013FE064608E004E0FFF70EFE801B642881
:101D100002D90320BDE8F88328688000F4D507E0E5
:101D2000E86A616900F47040884201D00120F1E75F
:101D30002078C00605D56868E16920F48000084372
:101D400068600020E6E700000010024000700040DC
:101D500040044242000042422DE9F0470F46050090
:101D600061D0434E306800F00700B84209D23068B5
:101D700020F0070038433060306800F00700B842B8
:101D800051D128683B4C810712D5400703D56068C4
:101D900040F4E06060602878000703D5606840F494
:101DA000605060606068A96820F0F00008436060DF
:101DB0002878C00728D06868012810D02168022838
:101DC00010D0890700292EDA616821F00301014350
:101DD0006160FFF7A9FD804641F288390DE0216876
:101DE0008903EFE78901EDE7FFF79EFDA0EB08010E
:101DF000494502D90320BDE8F0876068696800F0B2
:101E00000C00B0EB810FEFD1306800F00700B84252
:101E10000BD9306820F0070038433060306800F09C
:101E20000700B84201D00120E5E72878400705D532
:101E30006068E96820F4E060084360602878000783
:101E400006D56068296920F4605040EAC1006060EE
:101E500000F058F86168084AC1F30311515CC840AA
:101E60000649086006480068FFF77EFD0020C2E7CB
:101E70000020024000100240C83E00083800002048
:101E8000300000200F2202600C4A536803F0030365
:101E90004360536803F0F0038360536803F4E06326
:101EA000C36052684FF4E06303EAD202026104485F
:101EB000006800F007000860704700000010024052
:101EC000002002400448054900684968044AC1F3FB
:101ED0000221515CC84070473800002000100240C9
:101EE000D83E00080448054900684968044AC1F31F
:101EF000C221515CC84070473800002000100240E9
:101F0000D83E00082DE9F0411D494A681D4802F0FD
:101F10000C03042B2ED0082B2CD11B48C2F3834377
:101F2000C45CD00328D5C86A174A00F00F000E32EF
:101F3000105CCA6AD20316D5CA6AC96AC2F3031210
:101F4000C1F30321521C891CA2FB0023A1FB041531
:101F50000C4F0026A1FB070C05FB07C501FB065132
:101F6000FEF7B0F903E007496143B1FBF0F00D2C37
:101F700000D14008BDE8F08104486043FAE7000062
:101F80000010024000127A008C3E000800093D005B
:101F90002DE9F84F040070D02078F14DC00749D0EA
:101FA0006868C0F38100012807D06868C0F3810029
:101FB000022809D16868C00306D52868800339D58E
:101FC000A0680028E7D035E0A068B0F5803F0BD0CE
:101FD00010B1B0F5A02F11D0286820F4803028600F
:101FE000286820F4802002E0286840F480302860CF
:101FF000A06890B1FFF798FC06460AE0286840F414
:1020000080202860F0E700BFFFF78EFC801B64286B
:1020100076D828688003F7D50CE0FFF785FC0646E4
:1020200005E000BFFFF780FC801B6428F0D828681B
:102030008003F7D42078CB4E80074FF001094FF092
:1020400000073AD5686810F00C0F07D06868C0F335
:102050008100022809D16868C00306D42868800777
:1020600015D56069012808D111E06069B8B1C6F8DA
:102070000090FFF759FC804606E042E1FFF754FC70
:10208000A0EB08000228C3D828688007F6D5286886
:10209000A16920F0F80040EAC10028600DE0376037
:1020A000FFF742FC804605E0FFF73EFCA0EB08008E
:1020B0000228ADD828688007F6D4207800072ED5EE
:1020C000A948E169E9B1C0F80090FFF72DFC80460E
:1020D00006E000BFFFF728FCA0EB0800022897D815
:1020E000686A8007F6D5A1484FF4FA510068B0FB42
:1020F000F1F0009000BF0098411E0091FAD20EE06E
:10210000B0E00760FFF710FC804605E0FFF70CFC2D
:10211000A0EB0800022889D8686A8007F6D42078E6
:10212000400763D5E8694FF00008C00009D4E869AA
:1021300040F08050E861E8694FF0010800F08050FD
:1021400000908B480168C90512D40168834641F4A8
:1021500080710160FFF7E8FB824605E0FFF7E4FBD2
:10216000A0EB0A0064287DD8DBF80000C005F5D597
:10217000206901280AD008B1052813D0286A20F068
:1021800001002862286A20F0040002E0286A40F07A
:1021900001002862206941F2883B98B1FFF7C4FB37
:1021A00082460BE0286A40F004002862EEE700BF98
:1021B000FFF7BAFBA0EB0A01594553D8286A8007FC
:1021C000F6D50CE0FFF7B0FB824605E0FFF7ACFB6D
:1021D000A0EB0A01594545D8286A8007F6D4B8F122
:1021E000000F03D0E86920F08050E861E06AD0B3C6
:1021F0006968C90307D56968C1F38101022902D161
:10220000E96AC9037DD4022808D0E86A20F4803046
:10221000E862B766FFF788FB80463BE02868C000AD
:1022200005D5E86A616B00F0F000884269D1B766B5
:10223000FFF77AFB804605E0FFF776FBA0EB08008E
:10224000642874D828680001F6D4E86A616B20F02D
:10225000F0000843E862E86A216B20F470600843EC
:10226000E86201E063E018E0C6F86890FFF75CFB05
:10227000804605E0FFF758FBA0EB0800642856D81D
:1022800028680001F6D508E0FFF74EFBA0EB080038
:1022900064284CD828680001F6D4206A90B3696895
:1022A000C1F38101022949D00228376603D0FFF724
:1022B0003BFB04463EE0FFF737FB074605E000BF67
:1022C000FFF732FBC01B022831D828688001F7D401
:1022D000606AB0F5803F09D1E86A61680843E86246
:1022E000E86AE16820F00F000843E862D4E90901D8
:1022F0000843696821F4741108436860C6F8609067
:1023000001E028E029E0FFF70FFB044605E000BFED
:10231000FFF70AFB001B022809D828688001F7D5BF
:102320001BE000BFFFF700FB001B022802D90320BF
:10233000BDE8F88F28688001F4D40EE00128F7D0BA
:102340006868626A00F48031914204D1A16A00F4A5
:102350007010884201D00120EAE70020E8E7000081
:102360000010024000004242800442423800002037
:10237000007000407047704770B590F83C20012A0B
:1023800029D0012480F83C40022280F83D200368D7
:102390005A689D6822F070060A6832435A600F4BF3
:1023A00002689A420BD0B2F1804F08D00C4B9A428F
:1023B00005D00C4B9A4202D00B4B9A4204D149688B
:1023C00025F080031943916080F83D40002180F89A
:1023D0003C10084670BD022070BD0000002C01407A
:1023E0000004004000080040000C004010B504004C
:1023F00003D094F83D0010B107E0012010BD00208B
:1024000084F83C00204600F01EF8022084F83D00CD
:10241000211D206800F0D2FB012084F8460084F8DA
:102420003E0084F83F0084F8400084F8410084F8BE
:10243000420084F8430084F8440084F8450084F89E
:102440003D00002010BD704790F83D10012901D0DB
:1024500001207047022180F83D100168CA6842F0EF
:102460000102CA6000680D4988420BD0B0F1804F6C
:1024700008D00B49884205D00A49884202D00A494F
:10248000884204D1816801F00701062903D0016860
:1024900041F001010160002070470000002C014064
:1024A0000004004000080040000C0040704770B578
:1024B0000446006801694FF00005C943890715D437
:1024C000C168C943890711D4E91E01610120207741
:1024D000206880698007204602D0FFF7E7FF04E00C
:1024E00000F0BEF8204600F063F925772068016906
:1024F000C943490717D4C168C943490713D46FF0CA
:1025000004010161022020772068806910F4407F77
:10251000204602D0FFF7CAFF04E000F0A1F82046F1
:1025200000F046F9257720680169C943090716D4E8
:10253000C168C943090712D46FF008010161042082
:1025400020772068C0698007204602D0FFF7AEFFE1
:1025500004E000F085F8204600F02AF9257720688D
:102560000169C943C90617D4C168C943C90613D450
:102570006FF010010161082020772068C06910F415
:10258000407F204602D0FFF791FF04E000F068F89A
:10259000204600F00DF9257720680169C943C90775
:1025A00008D1C168C943C90704D1891E0161204609
:1025B00000F054F920680169C943090609D4C168CB
:1025C000C943090605D46FF0800101612046FFF779
:1025D000D1FE20680169C943490609D4C168C943CD
:1025E000490605D46FF040010161204600F040F932
:1025F00020680169C94389060BD4C168C9438906AB
:1026000007D46FF0200101612046BDE87040FFF75C
:10261000B2BE70BD00B585B000210091019102915C
:10262000039100680B49884211D10B48816941F040
:10263000080181618069694600F00800049040202B
:1026400000900220019003900448FFF777F805B04E
:1026500000BD00000008004000100240000C0140D6
:10266000704770B5044690F83C0000260D460128DE
:102670000FD0012084F83C006AB1042A1DD0082A3A
:102680002FD00C2A3FD00126002084F83C00304691
:1026900070BD022070BD206800F0DCFA20688169FE
:1026A00041F0080181612068816921F004018161A4
:1026B000206881692A69114311E0206800F0F2FA6C
:1026C0002068816941F4006181612068816921F499
:1026D00080618161206881692A6941EA0221816102
:1026E000D2E7206800F00AFB2068C16941F00801C8
:1026F000C1612068C16921F00401C1612068C1691C
:102700002A69114311E0206800F024FB2068C169A8
:1027100041F40061C1612068C16921F48061C16137
:102720002068C1692A6941EA0221C161ACE710B59C
:10273000040003D094F83D0010B107E0012010BD63
:10274000002084F83C00204600F01EF8022084F8A7
:102750003D00211D206800F031FA012084F8460078
:1027600084F83E0084F83F0084F8400084F841007B
:1027700084F8420084F8430084F8440084F845005B
:1027800084F83D00002010BD08B500680649884265
:1027900008D10648C16941F00401C161C06900F077
:1027A0000400009008BD0000000800400010024036
:1027B0007047000010B50446022249B104290ED02A
:1027C000082913D094F84100012816D0012010BD2B
:1027D00094F83E000128F9D184F83E200FE094F8E7
:1027E0003F000128F2D184F83F2008E094F840002F
:1027F0000128EBD184F8402001E084F84120012237
:10280000206800F019FA11492068884203D1426C0F
:1028100042F400424264206888420BD0B0F1804FFD
:1028200008D00B49884205D00A49884202D00A499B
:10283000884204D1816801F00701062903D00168AC
:1028400041F001010160002010BD0000002C01409A
:102850000004004000080040000C004000680349EC
:10286000884201D1FFF766B87047000000140040AD
:102870007047FEE73EB50021174800910191154AC7
:1028800002910260921582600173017502244FF477
:1028900060220461C2614160FEF75EF808B172B661
:1028A000FEE7082000900120019007200290694671
:1028B0000948FDF7BFFF08B172B6FEE70920CDE970
:1028C000000469460448FDF7B5FF002801D072B640
:1028D000FEE73EBD00240140F800002070B524480A
:1028E0002249002401600421C0E901144FF4602151
:1028F000C0E903414FF4801141610476012545761A
:102900008576C57604774477FEF7ABFB08B172B6DF
:10291000FEE7174805218C388460C0E9034140F286
:1029200002310160047534304FF40051C0E90545AF
:1029300004610160416081604462C160C0E9074593
:1029400001465830FEF78EF908B172B6FEE7084826
:10295000FEF77EFC08B172B6FEE703210448FEF7DD
:102960006FF9002801D072B6FEE770BD0068004024
:10297000280100202DE9F04385B000242948009467
:10298000019402940394816941F02001816181697D
:1029900001F020010491816941F0040181618169A4
:1029A00001F004010491816941F0080181618169AC
:1029B00001F008010491816941F010018161806991
:1029C000DFF8648000F010000490002240214046AF
:1029D000FEF7A4FFDFF854904FF4807700223946C9
:1029E0004846FEF79BFF402001250326CDE9000560
:1029F000CDE9024669464046FEF7A0FE0420CDE937
:102A0000000469460A480294FEF798FE02200097E7
:102A10000396CDE9015069464846FEF78FFE05B0A2
:102A2000BDE8F083001002400008014000100140A2
:102A3000000C014010B58AB0002407941C216846A0
:102A40000894FDF7E8FC1748154901604721C0E9E3
:102A5000011440F2CF71C0E903148461FFF767FEEF
:102A600008B172B6FEE7079407A90E480894FFF76D
:102A700083FC08B172B6FEE76020009040F2E730B8
:102A8000CDE901040022694606480494FFF7E9FDF8
:102A900008B172B6FEE70348FFF7BCFD0AB010BDEF
:102AA0000008004064010020FEE7FEE7104C114ED4
:102AB0004FF480750022E38811460F48FEF762FC50
:102AC000607820B9002229463046FEF727FF60785B
:102AD000012804D1012229463046FEF71FFFFDF7E9
:102AE000B3FDFDF79FFD012000F0EEF9E2E70000E5
:102AF00000000020001001405001002010B55020BF
:102B000080F31188BFF34F8FBFF36F8F00F038FE53
:102B100018B104494FF080500860002080F31188FC
:102B200010BD000004ED00E070B59CB0382168468F
:102B3000FDF771FC14210EA8FDF76DFC202113A8F0
:102B4000FDF769FC012600243004CDE902040225CA
:102B5000CDE908500096059601944FF4E010CDE9B8
:102B60000A046846FFF714FA08B172B6FEE70F20B0
:102B7000CDE90E054FF48060CDE9104002210EA88A
:102B80001294FFF7E9F808B172B6FEE74FF400407F
:102B90001590139513A8FFF71BF808B172B6FEE75E
:102BA000014806671CB070BD00004242704700003B
:102BB0000148FFF77CBC000044040020F0B5026827
:102BC000194B1A4C1A4D1B4E4FF08047984207D0B4
:102BD000B84205D0A04203D0A84201D0B04204D1EF
:102BE00022F0700C4A6842EA0C02984207D0B842C0
:102BF00005D0A04203D0A84201D0B04203D122F4B4
:102C00004074CA6822434C6922F080022243026069
:102C10008A68C2620A688262984201D109690163C6
:102C200001214161F0BD0000002C01400004004082
:102C300000080040000C004010B501F01F03012106
:102C4000046A99408C430462016A9A40114301620C
:102C500010BD000030B5036A026A22F00102026270
:102C60004268846924F073050C682C4323F0020544
:102C70008B682B430A4DA8420BD123F00805CB6883
:102C800022F440722B434D6923F0040315438A69F3
:102C90002A434260846149684163036230BD000099
:102CA000002C014030B5026A036A23F0100303626E
:102CB000436884690D6824F4E64444EA05248D6879
:102CC00022F0200242EA05120B4DA8420ED1CD6837
:102CD00022F0800242EA05124D6923F4406343EA80
:102CE00085038D6922F0400243EA850343608461D5
:102CF00049688163026230BD002C014030B5036A2F
:102D0000026A22F4807202624268C46923F400738A
:102D100024F073050C682C438D6843EA05230C4DA1
:102D2000A8420ED1CD6823F4006343EA05234D6920
:102D300022F4405242EA05128D6923F4806342EA8C
:102D400005124260C4614968C163036230BD00007E
:102D5000002C014030B5046A026A22F480520262FB
:102D60004268C3690D6823F4E64343EA05238D688E
:102D700024F4005444EA0534064DA84204D14D69B8
:102D800022F4804242EA85124260C36149680164CC
:102D9000046230BD002C0140FEE70907090E00283F
:102DA00004DB00F1E02080F80014704700F00F0011
:102DB00000F1E02080F8141D704770B50D461446F0
:102DC00006464FF07E5100F0C5FF214600F0F6FEAA
:102DD00004462946304600F0F1FE2146BDE8704029
:102DE00000F094BD90B0FEF7ADFDFFF79DFEFFF73C
:102DF000C1FD2D48416941F0010141614069002256
:102E000000F001000E9005210B20FEF72BFE0B2099
:102E1000FEF71AFEFFF72EFDFFF70CFEFFF75EFD33
:102E2000002423490E9421480F9408600846FEF7B9
:102E300069FA08B172B6FEE70E9400220EA91C488A
:102E40000F94FEF738FA08B172B6FEE70021184871
:102E5000FEF7A9FA164840211430FFF7ABFC1448DE
:102E60005838FDF77BFC1248022212495838FDF70A
:102E700047FE1C2210496846FDF79BFA0021684670
:102E800000F02EF80B4C0C49103C1C22E0611C3168
:102E900007A8FDF78EFA002107A800F021F82062AC
:102EA00000F019F8FEE70000001002400074004036
:102EB0005001002010000020543E00080146002070
:102EC000842900D0C81C704710B500B9012000F05B
:102ED00019FB002010BD10B500F03AFB002010BD1A
:102EE0007FB50D4604464169B0F9080081B1A1697A
:102EF00071B1FFF7E3FFD4E905128DE80700D4E9CB
:102F000000102B46226900F010FC039004B070BD45
:102F1000FFF7D4FF03A9CDE90001208A2B4682B236
:102F2000D4E9001000F0D4FB012801D00020EDE727
:102F30000398EBE72DE9F041184C0F46054666690A
:102F40002068001D00F01AFA38B9206890F82C109B
:102F500001208840A1698143A161681C07D137B174
:102F60002168BDE8F0410E48091D00F04BBA206809
:102F70003544B5424560216805D2A068BDE8F041FE
:102F8000091D00F027BA6068091D00F023FA206BC4
:102F9000854200D22563BDE8F08100003C0000209E
:102FA000680500202DE9F041054600F037FA2E4C67
:102FB0002069401C206120682C4F10B1E06940B3AB
:102FC0002DE025602069012829D1002606EB860026
:102FD00007EB800000F0F0F9761C072EF6D32348AB
:102FE0008C3000F0E9F92148A03000F0E5F91F48E5
:102FF000B43000F0E1F91D48C83000F0DDF91B489D
:10300000DC3000F0D9F919488C3060601430A060D1
:1030100005E02068E96AC06A884200D82560E06A55
:10302000401CE062E96A0120A26988401043A06167
:1030300001EB810007EB8000291D00F0E3F900F0AF
:103040000DFAE06900280CD02068E96AC06A88425D
:1030500007D207494FF080500860BFF34F8FBFF38E
:103060006F8FBDE8F08100003C0000208C04002040
:1030700004ED00E010B5044690F8510058B1012865
:103080000CD002280FD0502080F31188BFF34F8F4F
:10309000BFF36F8FFEE7206B00F0F4F92046BDE828
:1030A000104000F0EFB910BD10484FF480514207B6
:1030B00006D0C01D0D4920F00700411AC1F580510E
:1030C0000B4A00230144C2E900030839103A21F0F9
:1030D000070111604B600B600B1AC0E9001393608D
:1030E0004FF000405360D060704700007C05002026
:1030F00088000020144E154CA6F1C8074FF08058E8
:10310000DFF84C9012E000BF00F088F9F068C56865
:10311000281D00F033F92069401E2061E068401E40
:10312000E06000F09BF92846FFF7A4FFE068002864
:10313000EAD138680128F9D9C9F80080BFF34F8F68
:10314000BFF36F8FF2E70000540500203C00002021
:1031500004ED00E02DE9F0479A46DDE90984814657
:103160006FF00303206B03EB82021044089D20F0F4
:103170000706700707D0502080F31188BFF34F8FE8
:10318000BFF36F8FFEE723180A5C83F834200A5CD4
:1031900012B1401C1028F6D3002784F84370072D85
:1031A00000D30625E562C4E91157201D00F00FF990
:1031B00004F1180000F00BF92461C5F10700646206
:1031C000A061E76484F8507052464946304600F0EA
:1031D000BFF82060B8F1000F01D0C8F80040BDE88A
:1031E000F087000030B5114900E011460A688242BC
:1031F000FBD34B685C18844203D140681844486094
:10320000084643681C18944209D1084C103C2468B5
:10321000A24209D052681A4442600A6812680260E9
:10322000814200D0086030BD0460F9E788000020CA
:1032300006484168096829B14168C968C968496890
:10324000016370474FF0FF31FAE700003C000020B7
:1032500008484068401C4FF0500080F3118804D0AB
:10326000BFF34F8FBFF36F8FFEE7BFF34F8FBFF3F7
:103270006F8FFEE7900000202DE9F0410546002702
:1032800000F09CF9314E306808B9FFF70DFFF06887
:1032900005424BD1C5B3083568070ED005F00700CD
:1032A000C0F108000544680707D0502080F311885A
:1032B000BFF34F8FBFF36F8FFEE72DB3706885426A
:1032C00034D82248103001460C6801E020460C46F4
:1032D0006168A94202D221680029F7D131688C4285
:1032E00024D007682168016060680837411B1029F5
:1032F0000FD96019420708D0502080F31188BFF31E
:103300004F8FBFF36F8FFEE710E041606560FFF7FE
:1033100069FF61687068401A7060B268904200D2BC
:10332000B060F06801430020C4E9000100F08CFAAD
:10333000780707D0502080F31188BFF34F8FBFF379
:103340006F8FFEE73846BDE8F0810000780000206E
:1033500010B5031F4FF080741C601B1F21F001018A
:103360001960191F024B0B60143940380A6010BDF8
:10337000513200080120FFF7A7FDFBE7D0E9013239
:1033800001699A60D0E901235A604A68824201D1FA
:1033900082684A60002202610868401E086008686E
:1033A00070470000034B036003F154000860802065
:1033B00010607047F001002000F108014FF0FF326B
:1033C000C0E90112C1600161002101607047002164
:1033D0000161704730B50B685A1C02D000F1080239
:1033E00002E0026904E02246546825689D42FAD949
:1033F00053684B6099608A60516008610168491C9C
:10340000016030BD42684A6093688B609368596080
:10341000916008610168491C01607047502080F389
:103420001188BFF34F8FBFF36F8F0A494868401C64
:10343000486001280CD10848006810F0FF0F07D041
:10344000502080F31188BFF34F8FBFF36F8FFEE7DB
:10345000704700009000002004ED00E00849486833
:1034600028B1401E486001D180F311887047502078
:1034700080F31188BFF34F8FBFF36F8FFEE700001B
:103480009000002070B5002827D0144DA0F108044A
:103490006168E868014207D1502080F31188BFF3CA
:1034A0004F8FBFF36F8FFEE722683AB1502080F351
:1034B0001188BFF34F8FBFF36F8FFEE781436160C9
:1034C00000F07CF860686968084468602046FFF78F
:1034D00089FEBDE8704000F0B7B970BD78000020EB
:1034E0004FF0E02000210161816105494FF47A72BB
:1034F0000968B1FBF2F1491E416107210161704782
:103500003800002010B5020014D00F48806B38B18D
:10351000502080F31188BFF34F8FBFF36F8FFEE70A
:1035200000F04CF800211046FFF704FD00F08CF984
:10353000002807D105494FF080500860BFF34F8F36
:10354000BFF36F8F10BD00003C00002004ED00E0D1
:1035500010B586B00024039405AA04A903A8049416
:10356000FFF720FFDDE903010094CDE901100023FE
:103570000EA11048059A00F0D8F80F4900284863BA
:1035800011D0502080F31188BFF34F8FBFF36F8F9E
:103590004FF0FF3008630120C8614C6106B0BDE800
:1035A000104000F041B806B010BD000049444C4541
:1035B00000000000F53000083C0000200248816B4C
:1035C000491C8163704700003C0000201448816B57
:1035D00011B1012141627047002141628169B1FA54
:1035E00081F1C1F11F0101EB81020E4951F8223036
:1035F0006BB101EB820101F108034A6852684A602D
:103600009A4201D152684A60D168016070475020E7
:1036100080F31188BFF34F8FBFF36F8FFEE7000079
:103620003C0000208C0400201CB52649087801903D
:10363000FF20087008788DF800009DF800009DF8C4
:10364000002000F0F000904207D0502080F3118855
:10365000BFF34F8FBFF36F8FFEE79DF800001A4B4B
:1036600000F0500018700720986005E09DF80020D9
:1036700052008DF80020401E9DF800201206F5D45F
:103680009860032807D0502080F31188BFF34F8F34
:10369000BFF36F8FFEE74FF4407098600198087099
:1036A0000A48016841F470010160016841F070410D
:1036B0000160FFF715FF00205860FCF7A9FD00200E
:1036C0001CBD000000E400E09000002020ED00E0C0
:1036D0002DE9FF5F8346DDE90E87994616468A4647
:1036E0009000FFF7C9FD05001CD05420FFF7C4FD72
:1036F000040014D00020256384F85100CDE9024075
:10370000CDE900874B46324651465846FFF722FD29
:103710002046FFF747FC012004B0BDE8F09F284693
:10372000FFF7B0FE4FF0FF30F6E7F0B585B0DDE90A
:103730000B640A9DA6B1DCB15427009726630226CC
:1037400084F85160002604AFCDE90246CDE9005768
:10375000FFF700FD2046FFF725FC049805B0F0BDFB
:10376000502080F31188BFF34F8FBFF36F8FFEE7B8
:10377000502080F31188BFF34F8FBFF36F8FFEE7A8
:103780002DE9F0412E4C0027A06B40B1206A401C6F
:103790002062606A00B101273846BDE8F0816669A1
:1037A000761C666113D16068006838B1502080F3E0
:1037B0001188BFF34F8FBFF36F8FFEE76068A1687A
:1037C0006160A060A06A401CA062FFF731FD206B21
:1037D000DFF87080864209D36068006880B1606855
:1037E000C068C568686886420DD220632068C06AD8
:1037F00000EB800158F821000128CAD90127C8E749
:103800004FF0FF30F1E7281DFFF7B8FDA86A18B1A7
:1038100005F11800FFF7B2FDE86A0121A2698140B5
:103820001143A16100EB800108EB8100291DFFF726
:10383000E9FDE86A2168C96A8842CDD30127CBE750
:103840003C0000208C0400202DE9F0472C4D002482
:103850002746A86B38B1FFF7E1FDA86B401EA863AF
:10386000A86B40B146E0502080F31188BFF34F8F22
:10387000BFF36F8FFEE72969224E0120D1B3A6F175
:10388000B40980463068E8B1F068C46804F11800F3
:10389000FFF774FD201DFFF771FDE06AAA6908FAC1
:1038A00000F11143A96100EB800109EB8100211DAA
:1038B000FFF7A8FDE06A2968C96A8842E2D3C5F823
:1038C0002480DFE70CB1FFF7B3FC2C6A44B1464615
:1038D000FFF756FF00B16E62641EF9D10020286226
:1038E000686A38B10849012738070860BFF34F8F6D
:1038F000BFF36F8FFFF7B2FD3846BDE8F0870000D9
:103900003C0000204005002004ED00E090EA010F9B
:1039100048BF81F0004100F12E82421A3CBF801A5C
:1039200089184FEAD0524FF07F4C1CEA410FA2EBAE
:10393000D15318BF9CEA026F00F03B804FF0004C5F
:103940004CEA00204CEA012121FA03FC10EB0C0C9C
:103950001ED202F1FF325FEA1C2040EBC25038BF9A
:1039600070471CF07F0F4FEA400C18BFBCF17F4F2F
:1039700038BF7047C3F12003994008BF20F0010011
:10398000BCF17F4F38BF7047A0F1C04000F0DDB9F7
:103990004FEA3C00000A40EBC25028BF1CF0FF0F6A
:1039A0004FEA400CE6D018BFBCF17F4F38BF7047DC
:1039B000EAE79CEA026F05D010EA5C0F08BF00F04E
:1039C0000040704710B500F07AF900BF64FBBE3EBE
:1039D0004FF47F0C1CEAD0121EBF1CEAD11392EAEE
:1039E0000C0F93EA0C0F00F0858090EA010F48BF9E
:1039F00042F4807240F4000C41F400002CF07F414E
:103A000020F07F4000B58142A2EB03020FF2081CB8
:103A1000ACEB504EC0F100009EF800E04FEA4E0EB5
:103A200000FB0EFC38BF49004FEA2C1C02F5FA02DD
:103A30000CFB0EF34FEACE1E4FEA112C4FEAC121C8
:103A40000EEB635E42EB22420EFB0CFC4FEA1C5372
:103A500000FB03114FEA112C4FEA01310EFB0CFC65
:103A60004FEADC4C00FB0C11C14228BF09184CEB9B
:103A700003335DF804EB10EB410143EBC250B2F5A8
:103A80007C0F38BF704729D512F0F00F1CBF00F132
:103A9000C04000F0004070470081828384858687A3
:103AA00088898B8C8D8E8F919293959697999A9CFD
:103AB0009D9FA0A2A3A5A7A8AAACAEB0B2B3B5B76C
:103AC000B9BCBEC0C2C5C7C9CCCED1D4D7D9DCDF42
:103AD000E2E6E9ECF0F3F7FAFE0000004FEA400CF2
:103AE0000CF1807CBCF17E4F28BF7047B0F1C04024
:103AF00000F02BB990EA010F0CEAD11348BF42F451
:103B00008072624538BF634507D213F47F0F16D029
:103B100080EA010000F00040704710B500F0CFF8D7
:103B2000097EFC3E00F005B880EA010000F000408C
:103B3000704780EA010000F0004000F006B912F47E
:103B40007F0F04BF0248704780EA010000F0FDB813
:103B50000000C07FC10DD1F19E0206DB4FEA0023B9
:103B600043F0004323FA02F07047004207D54FEAC2
:103B70004001B1F1FE4F02D24FF00000704710B586
:103B800000F09DF849922480002070476FEA2000E1
:103B900070470000B0FA80F310FA03F2C3F19D03FE
:103BA0000AD0D90501EB1220530638BF704700F147
:103BB000010008BF20F00100704700004FF47F0CA7
:103BC0001CEAD0121EBF1CEAD11392EA0C0F93EA32
:103BD0000C0F00F0478090EA010F48BF42F480725A
:103BE0004FF0004C4CEA00204CEA012102EB0302AA
:103BF000A0FB0113A2F50002002918BF43F0010346
:103C00005B0028BF4FEA330342EB22425FEA132CEA
:103C10004CEBC2502EBFBCEB436FB2F57C0F70472C
:103C20004FEA036CBCF1004F08BF20F00100B2F571
:103C30007C0F38BF70470BD582F0FF0212F5803F32
:103C4000C8BF704700F1C040D8BF00F000407047C7
:103C500000F5000C5FEA4C0C48BF7047B0F1C04063
:103C600000F073B890EA010F0CEAD11348BF42F498
:103C70008072624538BF634504D280EA010000F0DB
:103C80000040704710B500F01AF800BF8900013EEF
:103C900000F007B800F009B85FEA410C5FEA1C6C5D
:103CA00008D080EA010000F050B85FEA400C5FEAFB
:103CB0001C6CF6D14FF00040A0F5800070470EF16B
:103CC000020E2EF0030E5EF8044B244204D44FEA99
:103CD0004102B2F17F4F11D84FEA4003B3F17F4F59
:103CE0000CD80ED14FEAD07CB2F17F4F0CEB4C0CCC
:103CF0000CF1020C08BF4CEBD17C04E04FF0080C37
:103D000001E04FEAD17C0CEB4C0324FA03F404F0FD
:103D10000704B4F1040C06D20EEB840CBDE810408D
:103D20004CF0010C6047DFE80CF0070802024FF08E
:103D30000040A0F5800010BD0846420018BFD2F137
:103D4000807288BF00F0004010BDFF2141EAD050D2
:103D5000C005704780F0004090EA010F7FF5DDADAF
:103D600081F0004100F007B890EA010F48BF81F0F0
:103D700000413FF5D2AD421A04D882F00042A0EBD8
:103D8000020011444FEAD0524FF07F4C1CEA410F21
:103D9000A2EBD15318BF9CEA026F4AD04FF0004CFF
:103DA0004CEA00204CEA012121FA03FCB0EB0C0C98
:103DB0000FD412F0FE0F36D05FEA4C001DD5001272
:103DC00040EBC25038BF70471CF03F0F18BF704720
:103DD0000BE0A2F101025FEA1C2040EBC25038BFA9
:103DE00070471CF07F0F18BF7047C3F12003994044
:103DF00014BF401E20F00100704780084FEA1223D4
:103E000008BF7047B0FA80FCA2EB0C02CCF1280C82
:103E100060FA0CF093EA122F04BF00EBC250704717
:103E20004FEAC3707047130A5FEADC1008BF70479F
:103E3000F6E79CEA026F04D010EA5C0F08BF00208E
:103E4000704710B5FFF73BFF40DFF63E81F00040C2
:103E500070470000EC3E0008AD2A0008000000009A
:103E600000000000800000000000000000000000D2
:103E7000E03E00087533000801000000000000006B
:103E800080000000000000000000000000000405A9
:103E90000607080900000000000D010203040506E2
:103EA0000708090A0B0C0D0E0F1000000405060789
:103EB000080900000000000D0102030405060708C0
:103EC000090A0B0C0D0E0F1000000000000000008E
:103ED00001020304060708090000000001020304B0
:103EE00073757065727669736F72000072656164D4
:103EF00053656E736F727300183F00080000002056
:103F00009C0000008C010008B43F00089C000020C9
:103F1000441B0000A8010008000000000000FF0F83
:103F20000000000000000000000000000000000091
:103F30000000000000000000000000000000000081
:103F40000000000001000000100000000000000060
:103F50000024F40000000000000000000000000049
:103F60000000000000000000000000000000000051
:103F70000000000000000000000000000000000041
:103F80000000000000000000000000000000000031
:103F90000000000000000000000000000000000021
:103FA000000000000000000000000000AAAAAAAA69
:043FB000000000000D
:04000005080001519D
:00000001FF
