:020000040800F2
:10000000001C0020850200089D3200084F2F0008C8
:100010009932000821060008593800080000000045
:10002000000000000000000000000000ED010008DA
:100030004506000800000000310200085D35000898
:100040009F0200089F0200089F0200089F0200080C
:100050009F0200089F0200089F0200089F020008FC
:100060009F0200089F0200089F0200089F020008EC
:100070009F0200089F0200089F0200089F020008DC
:100080009F0200089F020008E104000835060008EE
:10009000250600089F0200089F0200089F02000832
:1000A0009F0200089F0200089F0200089F020008AC
:1000B0009F0200089F0200089F0200089F0200089C
:1000C0009F0200089F0200089F0200089F0200088C
:1000D0009F0200089F0200089F0200089F0200087C
:1000E0009F0200089F0200089F0200080000000015
:1000F0000000000000000000000000000000000000
:1001000000000000000000009F0200089F0200089D
:100110009F0200089F0200089F020008293600087D
:100120009F0200089F0200089F0200089F0200082B
:100130009F02000800000000000000009F0200086D
:100140009F0200089F0200089F0200089F0200080B
:1001500000F002F800F03AF80AA090E8000C82449F
:100160008344AAF10107DA4501D100F02FF8AFF27C
:10017000090EBAE80F0013F0010F18BFFB1A43F085
:1001800001031847D8560000F8560000103A24BF63
:1001900078C878C1FAD8520724BF30C830C144BFEC
:1001A00004680C607047000000230024002500262E
:1001B000103A28BF78C1FBD8520728BF30C148BFCA
:1001C0000B6070471FB51FBD10B510BD00F04DF995
:1001D0001146FFF7F7FF03F0C3FB00F06BF903B420
:1001E000FFF7F2FF03BC00F073F90000224B19681F
:1001F0000868B0E8F00F80F30988BFF36F8F4FF005
:10020000000080F311884EF00D0E704700000000D2
:1002100006480068006880F3088862B661B6BFF3DC
:100220004F8FBFF36F8F00DF00BF00BF08ED00E00E
:10023000EFF30980BFF36F8F0F4B1A6820E9F00FBF
:10024000106008B54FF0500080F31188BFF34F8F56
:10025000BFF36F8F04F09CF84FF0000080F311881B
:10026000BDE8084019680868B0E8F00F80F3098815
:10027000BFF36F8F704700BFA0000020EFF3058031
:10028000704700000948804709480047FEE7FEE73D
:10029000FEE7FEE7FEE7FEE7FEE7FEE7FEE7FEE736
:1002A00004480549054A064B7047000025360008FA
:1002B0005101000800160020001C0020001800203A
:1002C0000018002053EA020C00F069802DE9F04B81
:1002D0004FF00006002B1FBFB3FA83F503FA05F4B5
:1002E00024FA05F65E4012BF1643B2FA82F502FA0E
:1002F00005F4C5F120051EBF22FA05FC44EA0C04F2
:10030000203556EA044C4FEA144418BF641C4FF0E1
:1003100000084FF00009904271EB030C39D300291B
:1003200019BFB1FA81F701FA07F6B0FA80F700FABF
:1003300007F6C7F120071EBF20FA07FC46EA0C06A5
:100340002037B6FBF4FCA7EB0507103F07F01F0BA7
:10035000CBF120060CFA0BFB2CFA06F644BFB34691
:100360000026202FA4BF5E464FF0000B5BEA060C70
:1003700008BF4FF0010B19EB0B09ABFB027C48EBFC
:100380000608C01B06FB02CC0BFB03CC71EB0C0177
:10039000C1E70B46024641464846BDE8F08B13B51F
:1003A0004FF000004FF00001AFF30080BDE81C40AB
:1003B000704710B5203AC0F00B80B1E81850203AD1
:1003C000A0E81850B1E81850A0E81850BFF4F5AFF5
:1003D0005FEA027C24BFB1E81850A0E8185044BF7F
:1003E00018C918C0BDE810405FEA827C24BF51F8EC
:1003F000043B40F8043B08BF7047D20728BF31F8E0
:10040000023B48BF11F8012B28BF20F8023B48BF30
:1004100000F8012B70474FF0000200B513469446D8
:100420009646203922BFA0E80C50A0E80C50B1F14C
:100430002001BFF4F7AF090728BFA0E80C5048BF60
:100440000CC05DF804EB890028BF40F8042B08BFFE
:10045000704748BF20F8022B11F0804F18BF00F8FA
:10046000012B7047704770477047754600F02CF8B5
:10047000AE4605006946534620F00700854618B091
:1004800020B5FFF70DFFBDE820404FF000064FF00C
:1004900000074FF000084FF0000B21F00701AC46B9
:1004A000ACE8C009ACE8C009ACE8C009ACE8C009D8
:1004B0008D46704710B50446AFF300802046BDE876
:1004C0001040FFF78CBE0000004870479C150020CC
:1004D00001491820ABBEFEE726000200704700006D
:1004E00010B5024800F02FFB10BD000000010020F5
:1004F00070B5044600252068806800F0010018B33C
:100500002068806820F001002168886001F0D4FA3A
:10051000054613E001F0D0FA401B02280ED92068EE
:10052000806800F0010048B1A06A40F01000A062AD
:10053000E06A40F00100E062012070BD2068806840
:1005400000F001000028E5D10020F6E738B50446A8
:100550000025002000902068806800F0010078BB32
:100560002068806840F001002168886019480068B0
:100570001949B0FBF1F0009002E00098401E009095
:1005800000980028F9D101F097FA054619E001F02A
:1005900093FA401B022814D92068806800F00100FB
:1005A00078B9A06A40F01000A062E06A40F0010053
:1005B000E06200BF002084F8240000BF012038BDA5
:1005C00005E02068806800F001000028DFD00020EE
:1005D000F5E700009C00002040420F0010B50C49D8
:1005E0000C48006805F020F805D8012240210A488F
:1005F00001F05CFA0AE009490648006804F014FFBB
:1006000004D800224021044801F050FA10BD000037
:10061000CDCCCC3E2400002000080140CDCCCC3D08
:1006200000BFFEE710B5024800F083FD10BD0000DA
:100630003001002010B5024800F07BFD10BD000025
:1006400030010020704772B600BFFEE7F8B50446DF
:1006500000260020009000BF94F82400012801D15A
:100660000220F8BD012084F8240000BF2046FFF7D7
:100670003FFF06462046FFF769FF0646002E69D178
:10068000A06A20F4885040F00200A062022001F02D
:1006900025FB34490968B1FBF0F04000009002E00E
:1006A0000098401E009000980028F9D120688068CA
:1006B00040F008002168886001F0FEF9054616E068
:1006C00001F0FAF9401B0A2811D92068806800F06F
:1006D000080060B1A06A20F0020040F01000A062A3
:1006E00000BF002084F8240000BF0120B9E7206883
:1006F000806800F008000028E2D12068806840F09F
:1007000004002168886001F0D7F9054616E001F081
:10071000D3F9401B0A2811D92068806800F0040032
:1007200060B1A06A20F0020040F01000A06200BF9B
:10073000002084F8240000BF012092E72068806830
:1007400000F004000028E2D1A06A20F0020040F08E
:100750000100A06200BF002084F8240000BF3046E2
:100760007FE700009C00002038B5024600230020EF
:100770000090906800B100BF00BF92F824000128EB
:1007800001D1022038BD012082F8240000BF90680A
:1007900090B94868012809D11068806B6FF3150083
:1007A0000C6840EAC4301468A06338E0906A40F0F6
:1007B00020009062012332E00C694868A0421ED8F4
:1007C0004C680869001BC0F1030000EB80041F2087
:1007D000A04040F440141068806BA0434D680C6941
:1007E000641BC4F1030404EB84050C68AC400D8A5F
:1007F0006D1E44EA055420431468A0630FE04C6862
:100800000869001BC0F1030000EB80041F20A0401A
:1008100040F440141068806BA0431468A063106813
:10082000806800F0010040B91068806847F2010458
:10083000A0438C6920431468A060487D01280FD133
:100840008869B0F5E04F06D11068406840F48060D8
:100850001468606004E0906A40F020009062012318
:10086000087D01280DD1487D30B91068406840F4FA
:1008700080501468606004E0906A40F0200090624C
:10088000012308680A2812D31068C0680C780A3C53
:1008900004EB44050724AC40A0430D780A3D05EB6A
:1008A00045058C68AC4020431468E0600FE0106898
:1008B00000690C7804EB44050724AC40A0430D7894
:1008C00005EB45058C68AC4020431468206108683E
:1008D000102802D00868112805D11068806840F4FB
:1008E00000001468A0604868012806D002280DD0D6
:1008F000032814D004281BD11BE0106840696FF353
:100900000B00CC682043146860611BE010688069AC
:100910006FF30B00CC6820431468A06112E01068EC
:10092000C0696FF30B00CC6820431468E06109E0F4
:1009300000BF1068006A6FF30B00CC682043146896
:10094000206200BF00BF0868102802D00868112884
:1009500027D1174C1068A0421ED11068806800F49F
:100960000000F0B91068806840F400001468A060CE
:100970000868102815D10F4800680F4CB0FBF4F040
:1009800000EB80004000009002E00098401E0090C4
:1009900000980028F9D104E0906A40F020009062AD
:1009A000012300BF002082F8240000BF1846E9E6BA
:1009B000002401409C00002040420F0010B5044676
:1009C0001149206888421DD10121104800F024F807
:1009D0000F49088002210D4800F01EF80C4948809C
:1009E00003210A4800F018F80949888004210748C3
:1009F00000F012F80649C880012006490870034833
:100A000000F024F810BD0000002401400001002087
:100A1000020000200A0000200246002001290FD019
:100A2000022909D0032904D0042908D11368986C3D
:100A300009E01368586C06E01368186C03E000BF07
:100A40001368D86B00BF00BF7047000070B5044644
:100A5000002500BF94F82400012801D1022070BDB8
:100A6000012084F8240000BF2046FFF76FFD0546F3
:100A7000002D5BD1A06A42F20101884340F480500E
:100A8000A0622E492068884208D12D48006800F4F1
:100A9000702008B9012002E0002000E0012020B110
:100AA000A06A20F48010A06203E0A06A40F48010E5
:100AB000A062A06A00F4807008B90020E06200BF64
:100AC000002084F8240000BF401F216808602068CF
:100AD000406840F08000216848602068406800F469
:100AE000806010BB2068806800F4E040B0F5E04F03
:100AF00015D112492068884208D11148006800F4D5
:100B0000702008B9012002E0002000E0012030B18F
:100B10002068806840F40210216888600BE020683B
:100B2000806840F400402168886004E000BF002035
:100B300084F8240000BF284691E700000028014007
:100B400004240140704770B5044620680568206899
:100B5000466806F0200020282DD105F0020002286A
:100B600029D1A06A00F0100018B9A06A40F4007002
:100B7000A0622068806800F46020B0F5602F13D177
:100B8000207B88B92068406820F0200021684860F8
:100B9000A06A20F48070A062A06A00F4805018B9A6
:100BA000A06A40F00100A0622046FFF7CBFF6FF083
:100BB00012002168086006F08000802839D105F015
:100BC0000400042835D1A06A00F0100018B9A06A0A
:100BD00040F40050A0622068806800F4E040B0F566
:100BE000E04F0DD02068406800F48060D0B92068E4
:100BF000806800F46020B0F5602F13D1207B88B9A5
:100C00002068406820F0800021684860A06A20F4D5
:100C10008050A062A06A00F4807018B9A06A40F009
:100C20000100A0622046FFF7C9FE6FF00C002168AA
:100C3000086006F0400040280DD105F0010050B1D9
:100C4000A06A40F48030A062204600F0A7F86FF060
:100C500001002168086070BD2DE9F04104460027BD
:100C600000250026A84614B90120BDE8F081A0683F
:100C700010B1207D00B100BFA06A30B90020E06251
:100C800084F82400204600F08BF82046FFF730FC63
:100C90000746A06A00F01000002873D1002F71D120
:100CA000A06A20F4885040F00200A062E169606808
:100CB0000843217B40EA41000643A068B0F5807FED
:100CC00002D0A068012802D14FF4807000E000201B
:100CD0000543207D012811D1207B38B9A069401E31
:100CE0004FF4006141EA4030054307E0A06A40F05C
:100CF0002000A062E06A40F00100E06220684068E5
:100D000020F46940284321684860206880682149B0
:100D10000840304321688860A068B0F5807F02D029
:100D2000A068012802D14FF4807000E00020B0F5E7
:100D3000807F03D1208A401E4FEA00582068C06A95
:100D400020F4700040EA08002168C86220688068CA
:100D500011490840B04208D10020E062A06A20F0AA
:100D6000020040F00100A06211E0A06A20F0020041
:100D700040F01000A062E06A40F00100E06201274C
:100D800005E0FFE7A06A40F01000A06201273846A6
:100D90006BE70000FDF7E1FFFE0E1FFF704700004C
:100DA00010B586B004460020029003900490059090
:100DB0002249206888423ED100BF2148806940F422
:100DC00000701F4988610846806900F40070019036
:100DD00000BF00BF00BF0846806940F01000886176
:100DE0000846806900F01000019000BF00BF00BFFE
:100DF0000846806940F0080088610846806900F074
:100E00000800019000BF00BF302002900320039033
:100E100002A90C4800F0BAFC03200290039002A93A
:100E2000094800F0B3FC00220521122000F004FF65
:100E3000122000F0F1FE06B010BD000000240140B9
:100E40000010024000100140000C014010B50246A5
:100E500092F82030012B01D0022B06D11068406996
:100E6000084314686061002010BD506A40F480207F
:100E700050620120F8E70000F0B504460A462168F8
:100E800094F82050012D01D0022D7ED1424901F568
:100E90000071086840F001000860086820F47C5088
:100EA00008600868566A40EA06200860107D00F075
:100EB0001F06012000FA06F3C8699843C861A1F52E
:100EC0000071D069C8B9D1F80C029843C1F80C027E
:100ED000908880B2968940EA064601F510705769FD
:100EE00040F83760108880B2168940EA064601F55E
:100EF0001070576900EBC7004660D069012819D10E
:100F0000D1F80C021843C1F80C02908880B2168800
:100F100040EA064601F51070576940F8376090893D
:100F200080B2168940EA064601F51070576900EB59
:100F3000C7004660906928B9D1F804029843C1F807
:100F4000040204E0D1F804021843C1F80402106955
:100F500028B9D1F814029843C1F8140204E0D1F87A
:100F600014021843C1F81402106A012804D1D1F800
:100F70001C021843C1F81C02D1F8000220F0010045
:100F8000C1F800020020F0BDFFE7606A40F4802055
:100F900060620120F7E7000000640040704770B510
:100FA000044694F82050012D01D0022D7DD151B975
:100FB0002068C06800F0030080B9606A40F4001047
:100FC0006062012070BD2068006900F0030028B94C
:100FD000606A40F4001060620120F3E7206800F5C9
:100FE000D87000EB0110006800F004009060906879
:100FF00040B9206800F5D87000EB01100068400D82
:10100000106007E0206800F5D87000EB0110006860
:10101000C0085060206800F5D87000EB011000682F
:1010200000F00200D060206800F5D87000EB0110DD
:10103000406800F00F00082802D30820106108E083
:10104000206800F5D87000EB0110406800F00F0038
:101050001061206800F5D87000EB0110406800F4C2
:101060007F40000A9061206800F5D87000EB011005
:101070004068000C5061206800F5D87000EB01104A
:1010800080681870206800F5D87000EB0110806847
:1010900000F47F40000A5870206800F5D87000EB1B
:1010A0000110806800F47F0000E03CE0000C9870C4
:1010B000206800F5D87000EB01108068000ED87031
:1010C000206800F5D87000EB0110C0681871206826
:1010D00000F5D87000EB0110C06800F47F40000AF2
:1010E0005871206800F5D87000EB0110C06800F45A
:1010F0007F00000C9871206800F5D87000EB01109B
:10110000C068000ED87131B92068C06840F0200076
:101110002668F06005E02068006940F0200026683D
:10112000306100204EE7606A40F480206062012058
:1011300048E72DE9F05F04460025206846692068ED
:10114000D0F80490206887682068D0F80CA0206848
:10115000D0F810B02068D0F8188006F00100002800
:1011600055D007F00100C0B101202168886007F068
:10117000020018B1204600F080FA0EE007F00400EB
:1011800010B145F4006508E007F0080010B145F41F
:10119000805502E0204600F06FFA07F48070C8B175
:1011A0004FF480702168886007F4007018B1204601
:1011B00000F065FA0EE007F4806010B145F40055C8
:1011C00008E007F4006010B145F4804502E02046D5
:1011D00000F054FA07F48030C8B14FF48030216831
:1011E000886007F4003018B1204600F04AFA0EE09B
:1011F00007F4802010B145F4004508E007F4002012
:1012000010B145F4803502E0204600F039FA06F0CE
:10121000080038B10AF0100020B145F40075102024
:101220002168C86006F0040040B10AF0080028B147
:1012300008202168C860204600F0B0F906F00200DE
:1012400038B12068C06800F0030010B1204600F0FB
:10125000A7F906F0400038B10BF0100020B145F4BA
:10126000806510202168086106F0200040B10BF075
:10127000080028B1082021680861204600F0CAF95A
:1012800006F0100038B12068006900F0030010B1CA
:10129000204600F0C0F906F4003040B109F010001B
:1012A00028B1102021684860204600F0B5F906F406
:1012B000803040B109F0080028B10820216848605A
:1012C000204600F0DFF906F4004088B309F004007E
:1012D00078B306F4807020B108F0010008B145F041
:1012E000010506F4007020B108F0020008B145F0D5
:1012F000020506F4806020B108F0040008B145F052
:10130000040506F40060A0B108F0700088B108F090
:101310007000402817D006DC10280BD020280CD0F5
:10132000302819D10CE0502810D0602814D110E0DA
:101330001DE019E045F008050FE045F010050CE050
:1013400045F0200509E045F0400506E045F0800540
:1013500003E045F4807500E000BF00BF20688069AD
:1013600020F07000216888610420216848602DB158
:10137000606A284360622046FFF710FEBDE8F09FD8
:1013800070B504460CB9012070BD94F8200010B966
:10139000204600F0AFF82068006840F001002168A6
:1013A000086000F089FB05460DE000F085FB401B5E
:1013B0000A2808D9606A40F400306062052084F889
:1013C00020000120E0E72068406800F001000028CC
:1013D000EBD02068006820F002002168086000F06F
:1013E0006BFB05460DE000F067FB401B0A2808D99F
:1013F000606A40F400306062052084F8200001201B
:10140000C2E72068406800F002000028EBD1207E8F
:10141000012806D12068006840F08000216808603B
:1014200005E02068006820F0800021680860607E88
:10143000012806D12068006840F04000216808605B
:1014400005E02068006820F0400021680860A07E68
:10145000012806D12068006840F02000216808605B
:1014600005E02068006820F0200021680860E07E28
:10147000012806D12068006820F01000216808606B
:1014800005E02068006840F0100021680860207FB7
:10149000012806D12068006840F008002168086033
:1014A00005E02068006820F0080021680860607F7F
:1014B000012806D12068006840F004002168086017
:1014C00005E02068006820F0040021680860D4E985
:1014D0000201084321690843616908436168491EA4
:1014E00008432168C86100206062012084F8200060
:1014F000002049E710B586B0044600200290039012
:10150000049005902249206888423ED100BF2148BE
:10151000C06940F000701F49C8610846C06900F00A
:101520000070019000BF00BF00BF0846806940F016
:10153000040088610846806900F00400019000BF43
:1015400000BFC814029000200390049002A9124822
:1015500000F01CF94FF48050029002200390032009
:10156000059002A90C4800F011F900220521132072
:1015700000F062FB132000F04FFB00220521142035
:1015800000F05AFB142000F047FB06B010BD00002D
:101590000064004000100240000801407047000055
:1015A00010B50446174B184A00212046FFF7F7FCF8
:1015B00015480068B0F5407F04D11248006813490F
:1015C00008601EE01048006840F20131884218D1DE
:1015D0000C48007810B900200D49087009480078BF
:1015E000012801D10A49087006480078022801D173
:1015F0000749087003480078032802D104200449F1
:10160000087010BD86000020CC010020680000207A
:101610000000002070477047704770B5044694F88A
:101620002000012822D1022084F8200020680068D0
:1016300020F001002168086000F03EFA05460DE048
:1016400000F03AFA401B0A2808D9606A40F40030DA
:101650006062052084F82000012070BD2068406889
:1016600000F001000028EBD16062F6E7606A40F408
:10167000002060620120F0E77047704770477047B4
:10168000704770477047F0B50346002603B109B9AB
:101690000120F0BD00BF5879012801D10220F8E7F0
:1016A0000120587100BF022018711868046802F008
:1016B000100740F6FE70B8408443D1E9000740EAC5
:1016C000070502F0100005FA00F0044318680460F2
:1016D0001868006802F0100CC02707FA0CF7B8432E
:1016E0001F6838600120187100BF0020587100BFCA
:1016F0003046CEE710B504460CB9012010BD207964
:1017000020B900206071204600F008F80220207106
:1017100000202061012020710020EFE710B586B085
:10172000044600200290039004900590144920681C
:10173000884222D100BF1348C06940F000501149CF
:10174000C8610846C06900F00050019000BF00BFAA
:1017500000BF0846806940F004008861084680693F
:1017600000F00400019000BF00BF10200290032091
:10177000039002A9044800F009F806B010BD00006B
:101780000074004000100240000801402DE9F847B5
:101790000346002294466EE14FF0010808FA02F475
:1017A000D1F8008008EA0400A0427DD1DFF8DCA275
:1017B000D1F80480A8EB0A09D0453AD014DCB8F17E
:1017C000030F50D009DCB8F1000F31D0B8F1010F90
:1017D0001CD0B8F1020F49D120E0B8F1110F18D098
:1017E000B8F1120F42D11EE0B9F5881F25D006DCF2
:1017F000B9F5803F20D0B9F5801F37D11AE0B9F58F
:10180000001F18D0B9F5041F30D117E0D1F80CC073
:101810002DE0D1F80C8008F1040C28E0D1F80C8000
:1018200008F1080C23E0D1F80C8008F10C0C1EE044
:1018300000BF00BF00BF00BF00BF00BFD1F80880DD
:10184000B8F1000F02D14FF0040C0BE0D1F8088082
:10185000B8F1010F03D14FF0080C1C6102E04FF00A
:10186000080C5C6103E04FF0000C00E000BF00BF1B
:10187000FF2801D8984601E003F104084646FF28F6
:1018800002D84FEA820803E0A2F108084FEA88086C
:101890004746D6F800804FF00F0909FA07F928EA01
:1018A00009080CFA07F900E088E048EA0908C6F8D8
:1018B0000080D1F8048008F08058B8F1805F7DD1B5
:1018C00000BFDFF8CC81D8F8188048F00108DFF8B5
:1018D000C091C9F81880C846D8F8188008F00108E7
:1018E000CDF8008000BF00BF4FEAB9384FEA920937
:1018F00058F829504FEA82784FEA18794FF00F08CC
:1019000008FA09F825EA0805DFF88881434502D17D
:101910004FF0000816E0DFF88081434502D14FF018
:1019200001080FE0DFF87481434502D14FF002084F
:1019300008E0DFF86C81434502D14FF0030801E075
:101940004FF004084FEA82794FEA197908FA09F84A
:1019500048EA0505DFF84C814FEA920948F829501A
:10196000D1F8048008F48018B8F5801F0AD1DFF898
:101970003881D8F8008048EA0008DFF82C91C9F8CF
:10198000008009E0DFF82081D8F8008028EA00080C
:10199000DFF81491C9F80080D1F8048008F4001829
:1019A000B8F5001F10D1DFF8008108F10408D8F85D
:1019B000008048EA0008DFF8F09000E05AE009F102
:1019C0000409C9F800800DE0DFF8DC8008F10408A4
:1019D000D8F8008028EA0008DFF8CC9009F1040963
:1019E000C9F80080D1F8048008F40038B8F5003F49
:1019F0000ED1DFF8B480A8F10408D8F8008048EAD6
:101A00000008DFF8A490A9F10409C9F800800DE0EE
:101A1000DFF89480A8F10408D8F8008028EA0008CC
:101A2000DFF88490A9F10409C9F80080D1F8048096
:101A300008F48038B8F5803F0ED1DFF86C80A8F14B
:101A40000808D8F8008048EA0008DFF85C90A9F19F
:101A50000809C9F800800DE0DFF84C80A8F10808FB
:101A6000D8F8008028EA0008DFF83C90A9F10809BE
:101A7000C9F80080521CD1F8008028FA02F8B8F1A9
:101A8000000F7FF489AEBDE8F88700000000111058
:101A90000010024000080140000C0140001001400D
:101AA0000014014008000140080401400AB101612E
:101AB00001E00B04036170470148006870470000B3
:101AC0009000002003480068034909780844014950
:101AD00008607047900000209800002010B508486A
:101AE000006840F0100006490860032000F0E2F8AA
:101AF0000F2000F007F800F05FF8002010BD000094
:101B0000002002402DE9F04188B004460027B84685
:101B1000002600BF2348C06940F020002149C86169
:101B20000846C06900F02000019000BF00BF02A974
:101B300003A800F095FB069F1FB900F0B9FB05460E
:101B400002E000F0B5FB45001748B5FBF0F0A0F14E
:101B5000010816481649086040F2E7311448C16090
:101B6000C0F80480002101618160816100F034FFD0
:101B7000064696B90E4800F063FF06466EB9372058
:101B800000F04AF8102C07D200222146372000F03E
:101B900053F80848046000E00126304608B0BDE86C
:101BA000F08100000010024040420F00001400408D
:101BB000640400209400002008B500BF1448806928
:101BC00040F00100124988610846806900F0010078
:101BD000009000BF00BF00BF0846C06940F08050C1
:101BE000C8610846C06900F08050009000BF00BF87
:101BF00000220F21901E00F01FF800BF0549486821
:101C000020F0E06040F00070486000BF08BD0000B8
:101C1000001002400000014001460846002809DB90
:101C200000F01F0301229A4043099B0003F1E023C7
:101C3000C3F8002100BF70472DE9F05F80460D46D4
:101C40001646002701F00AFE074639462A46334663
:101C500001F00700C0F1070ABAF1040F02D94FF0F2
:101C6000040A01E0C0F1070AD14600F1040ABAF102
:101C7000070F02D24FF0000A01E0A0F1030AD44698
:101C80004FF0010A0AFA09FAAAF1010A0AEA020A5D
:101C90000AFA0CFA4FF0010B0BFA0CFBABF1010B3B
:101CA0000BEA030B4AEA0B042146404601F0DEFD35
:101CB000BDE8F09F00BF00F00702064B19684FF621
:101CC000FF031940044B0B4343EA0221014B196007
:101CD00000BF70470CED00E00000FA052DE9F84F59
:101CE00080464FF0000900250026AB46AA46002793
:101CF000002400200090B8F1040F59D006DCB8F1A0
:101D0000010F76D0B8F1020F74D1C0E0B8F1080F1E
:101D100072D0B8F1100FF7D165484468006800F040
:101D20008070002843D06348C4F38341465C04F4C8
:101D3000803058B35E48C06A00F00F005E4911F869
:101D400000905B48C06A00F48030A0B15848C06A77
:101D5000C0F30310471C5648C06AC0F3032000F1CB
:101D6000020B5648B0FBF7F000FB0BF0B0FBF9F0AC
:101D700000FB06F504E05148B0FBF9F000FB06F566
:101D80004C48407BB04204D16D0802E04C4806FB51
:101D900000F54748406800F48000B0F5800F01D19D
:101DA000009504E068000321B0FBF1F000907BE0B7
:101DB0003F48C06A00F4003018B900F099FA00906A
:101DC00016E03B48006800F0805088B13848C06A8F
:101DD000C0F30310471C3648C06AC0F3033000F15B
:101DE000020A3648B0FBF7F000FB0AF04000009012
:101DF0005AE022E057E0FFE72D48C06A00F4802057
:101E000018B900F075FA009016E02948006800F053
:101E1000805088B12648C06AC0F30310471C24488C
:101E2000C06AC0F3033000F1020A2448B0FBF7F0A7
:101E300000FB0AF04000009036E01D48046A04F4FC
:101E40004070B0F5807F06D104F0020018B14FF465
:101E5000004000901AE004F44070B0F5007F08D113
:101E60001348406A00F0020018B149F64040009063
:101E70000CE004F44070B0F5407F07D10C480068D6
:101E800000F4003010B14FF2244000900CE000F05C
:101E90001FFA07494968C1F38131491C4900B0FB69
:101EA000F1F0009000E000BF00BF0098BDE8F88F9F
:101EB00000100240FE5700080C58000800127A007B
:101EC00000093D002DE9F8430446002600250027BF
:101ED000207800F0010000286ED0A8467948C0693B
:101EE00000F0805078B900BF7648C06940F080505B
:101EF0007449C8610846C06900F08050009000BF76
:101F000000BF4FF001087048006800F48070B8B955
:101F10006D48006840F480706B490860FFF7CCFDA5
:101F2000064607E0FFF7C8FD801B642802D903209E
:101F3000BDE8F8836448006800F480700028F1D0A0
:101F40006048006A00F440752DB3A08800F440702A
:101F5000A84220D05B48006A20F4407501205B490C
:101F60000860002008605748056205F0010090B144
:101F7000FFF7A2FD064608E0FFF79EFD801B41F239
:101F80008831884201D90320D2E74E48006A00F028
:101F900002000028F0D04B48006A20F440706168CD
:101FA000084348490862B8F1010F04D10846C069E6
:101FB00020F08050C86100BF207800F002000228A5
:101FC00007D14048406820F44040A16808433D499B
:101FD0004860207800F00400042807D13948C06A1E
:101FE00020F40030E16808433649C862207800F0E8
:101FF0000800082807D13348C06A20F480202169EE
:1020000008433049C8622F48C06A00F4003020B944
:102010002C48C06A00F4802000B10127012F41D173
:102020002848006800F0805090BB2648006800F007
:10203000806040B12348C06A00F0F001A06981428D
:1020400001D0012074E71F48C06A20F0F000A169A8
:1020500008431C49C8620846C06A20F470406169A0
:1020600008431849C862012019490867FFF724FD91
:10207000064606E0FFF720FD801B642801D90320F7
:1020800056E71048006800F000500028F2D009E040
:10209000FFE70C48C06A00F470406169884201D0D3
:1020A000012045E7207800F01000102807D10548EE
:1020B000406820F48000E16908430249486000203C
:1020C00036E7000000100240007000404004424229
:1020D0000000424270B504460D460CB9012070BDA7
:1020E0005A48006800F00700A8420ED2574800681E
:1020F00020F007002843554908600846006800F0B2
:102100000700A84201D00120E9E7207800F0020092
:1021100002281DD1207800F00400042805D14C4885
:10212000406840F4E0604A494860207800F00800C8
:10213000082805D14648406840F46050444948604A
:102140004348406820F0F000A168084340494860D7
:10215000207800F0010078B36068012806D13C487F
:10216000006800F4003090B90120B8E760680228E8
:1021700006D13748006800F0007040B90120AEE792
:102180003348006800F0020008B90120A7E7304892
:10219000406820F00300616808432D494860FFF75C
:1021A0008BFC064609E0FFF787FC801B41F2883173
:1021B000884202D9032092E707E02548406800F0F2
:1021C0000C006168B0EB810FEDD12048006800F091
:1021D0000700A8420ED91D48006820F007002843D8
:1021E0001A4908600846006800F00700A84201D0BC
:1021F000012074E7207800F00400042807D1144877
:10220000406820F4E060E1680843114948602078A4
:1022100000F00800082808D10D48406820F46050FC
:10222000216940EAC1000A49486000F061F80849A4
:102230004968C1F30311074A515CC8400649086068
:1022400006480068FFF75EFC002048E700200240D7
:10225000001002401C5800089C0000209400002040
:102260000F2202600D4A526802F0030242600B4ADC
:10227000526802F0F0028260084A526802F4E0629A
:10228000C260064A526802F46052D2080261044AEF
:10229000126802F007020A60704700000010024056
:1022A0000020024001480068704700009C000020A8
:1022B00000B5FFF7F7FF04494968C1F30221034A5B
:1022C000515CC84000BD0000001002402C580008BE
:1022D00000B5FFF7E7FF04494968C1F3C221034A8B
:1022E000515CC84000BD0000001002402C5800089E
:1022F0002DE9FE4F4FF00009CB46CA4600240020CE
:102300000290019000902F48D0F8049009F00C0042
:1023100000284FD0042802D008284AD102E02A48D9
:1023200002904AE02948C9F38341445C09F48030B3
:10233000C0B32448C06A00F00F00254911F800B06E
:102340002048C06A00F4803008B31E48C06AC0F359
:102350000310401C01901B48C06AC0F30320801C7E
:1023600000900198A0FB0B50064617490098A1FB6E
:1023700000120023A1FB047C02FB04C201FB032129
:102380002A4633463846FDF79DFF824603E00E4855
:102390006043B0FBFBFA0D48407BA04206D14FEAF8
:1023A0005A0A03E0FFE70B4804FB00FACDF808A047
:1023B00003E000BF0448029000BF00BF0298BDE8E0
:1023C000FE8F00000010024000127A00E057000863
:1023D000EE57000800093D00F8B504460CB901208D
:1023E000F8BD207800F00100002878D0FD48406852
:1023F00000F00C0004280CD0FA48406800F00C00F3
:10240000082811D1F748406800F48030B0F5803FCB
:102410000AD1F448006800F4003000285FD0A068BA
:1024200000285CD10120DBE700BFA068B0F5803F49
:1024300006D1EC48006840F48030EA49086028E0A2
:10244000A06858B9E748006820F48030E549086082
:102450000846006820F4802008601AE0A068B0F503
:10246000A02F0BD1DF48006840F48020DD490860D0
:102470000846006840F4803008600AE0D9480068E7
:1024800020F48030D74908600846006820F4802096
:10249000086000BFA06888B1FFF70EFB054606E0A4
:1024A000FFF70AFB401B642801D9032098E7CD48B9
:1024B000006800F400300028F2D010E0FFF7FCFACA
:1024C000054606E0FFF7F8FA401B642801D903200F
:1024D00086E7C448006800F400300028F2D1207874
:1024E00000F00200022857D1BE48406800F00C00FE
:1024F00050B1BC48406800F00C00082818D1B94819
:10250000406800F4803098B9B648006800F00200D6
:1025100020B16069012801D0012061E7B14800685D
:1025200020F0F800A16940EAC100AE49086033E03C
:102530006069E8B10120AC490860FFF7BDFA0546C3
:1025400006E0FFF7B9FA401B022801D9032047E74C
:10255000A448006800F002000028F2D0A1480068FA
:1025600020F0F800A16940EAC1009E49086013E02C
:1025700000209D490860FFF79FFA054606E0FFF737
:102580009BFA401B022801D9032029E795480068DF
:1025900000F002000028F2D1207800F0080008289E
:1025A0002DD1E069B8B1012090490860FFF784FAA5
:1025B000054606E0FFF780FA401B022801D90320F8
:1025C0000EE78848406A00F002000028F2D001209F
:1025D00000F0C6FE13E0002084490860FFF76CFAA3
:1025E000054606E0FFF768FA401B022801D90320E0
:1025F000F6E67C48406A00F002000028F2D120781C
:1026000000F00400042873D100277648C06900F068
:10261000805070B900BF7348C06940F08050714964
:10262000C8610846C06900F08050009000BF00BF3C
:1026300001276F48006800F48070B0B96C480068EA
:1026400040F480706A490860FFF736FA054606E0F4
:10265000FFF732FA401B642801D90320C0E6644822
:10266000006800F480700028F2D000BF20690128C3
:1026700006D15C48006A40F001005A49086227E030
:10268000206958B95748006A20F00100554908628E
:102690000846006A20F00400086219E02069052855
:1026A0000BD15048006A40F004004E4908620846C9
:1026B000006A40F0010008620AE04A48006A20F01F
:1026C0000100484908620846006A20F004000862D8
:1026D00000BF2069A0B1FFF7EFF9054609E0FFF759
:1026E000EBF9401B41F28831884202D9032077E69A
:1026F00022E03C48006A00F002000028EFD012E01F
:10270000FFF7DAF9054608E0FFF7D6F9401B41F27A
:102710008831884201D9032062E63248006A00F01D
:1027200002000028F0D1012F05D12E48C06920F009
:1027300080502C49C86100BFE06AA0B329484068B6
:1027400000F48030B0F5803F0ED12648406800F09C
:102750000C00082808D12348C06A00F48030B0F586
:10276000803F01D101203BE6E06A022850D11D489C
:10277000006800F0805040B11A48C06A00F0F001D3
:10278000606B814201D001202AE60020164988664C
:10279000FFF792F9054607E0FFF78EF9401B642822
:1027A00002D903201CE64DE00E48006800F00060EE
:1027B0000028F1D10B48C06A20F0F000616B08439B
:1027C0000849C8620846C06A20F47060216B08435B
:1027D0000449C862012004498866FFF76DF905467F
:1027E0000FE000000010024000004242800442421C
:1027F00000700040FFF760F9401B642801D90320F6
:10280000EEE54E48006800F000600028F2D019E0C4
:102810004A48C06A20F480304849C86200204849CC
:102820008866FFF749F9054606E0FFF745F9401BC2
:10283000642801D90320D3E54048006800F0006017
:102840000028F2D1206AE0B33C48406800F00C0058
:1028500008285ED0206A022846D100203849086640
:10286000FFF72AF9054606E0FFF726F9401B022884
:1028700001D90320B4E53148006800F00070002859
:10288000F2D1606AB0F5803F0DD12C48C06A616812
:1028900008432A49C8620846C06A20F00F00E16870
:1028A00008432649C862D4E9090108432349496815
:1028B00021F4741108432149486001202049086629
:1028C00000E038E0FFF7F8F8054606E0FFF7F4F817
:1028D000401B022801D9032082E51848006800F057
:1028E00000700028F2D026E0002015490866FFF7A6
:1028F000E3F8054606E0FFF7DFF8401B022801D9A0
:1029000003206DE50D48006800F000700028F2D14A
:1029100011E0206A012800D162E50848466806F403
:102920008031606A814204D106F47011A06A81424C
:1029300001D0012054E5002052E5000000100240C3
:10294000000042427047704730B502460B4600BF58
:1029500092F83C00012801D1022030BD012082F80C
:102960003C0000BF022082F83D00106844681068F7
:10297000816824F070041868044310684460124DA4
:102980001068A8420FD01068B0F1804F0BD00F4DE7
:102990001068A84207D00E4D1068A84203D00D4D14
:1029A0001068A84205D121F08001586801431068E1
:1029B0008160012082F83D0000BF002082F83C00C9
:1029C00000BF00BFC9E70000002C01400004004028
:1029D00000080040000C004010B504460CB901206E
:1029E00010BD94F83D0028B9002084F83C00204632
:1029F00000F025F8022084F83D00211D206800F039
:102A00001BFE012084F8460000BF84F83E0001212F
:102A10003F200155402001554120015500BF00BF16
:102A2000012084F8420043200155442001554520EF
:102A3000015500BF012084F83D000020D0E7704719
:102A4000014691F83D00012801D001207047022085
:102A500081F83D000868C06840F001000B68D8604C
:102A6000144B086898420FD00868B0F1804F0BD023
:102A7000114B0868984207D0104B0868984203D061
:102A80000F4B086898420CD10868806800F0070274
:102A9000062A0CD00868006840F001000B68186036
:102AA00005E00868006840F001000B68186000202D
:102AB000CCE70000002C014000040040000800406A
:102AC000000C0040704710B5044620680069C0F350
:102AD0004000D8B12068C068C0F34000B0B16FF0CA
:102AE000020021680861012020772068806900F0D9
:102AF000030018B12046FFF7E5FF05E0204600F08F
:102B0000D9F8204600F0A4F9002020772068006959
:102B1000C0F38000D8B12068C068C0F38000B0B1B5
:102B20006FF0040021680861022020772068806926
:102B300000F4407018B12046FFF7C4FF05E02046BE
:102B400000F0B8F8204600F083F9002020772068D4
:102B50000069C0F3C000D8B12068C068C0F3C000ED
:102B6000B0B16FF008002168086104202077206868
:102B7000C06900F0030018B12046FFF7A3FF05E08D
:102B8000204600F097F8204600F062F900202077F8
:102B900020680069C0F30010D8B12068C068C0F395
:102BA0000010B0B16FF01000216808610820207794
:102BB0002068C06900F4407018B12046FFF782FF1A
:102BC00005E0204600F076F8204600F041F90020AC
:102BD00020772068006900F0010058B12068C068C3
:102BE00000F0010030B16FF001002168086120465B
:102BF00000F0A0F920680069C0F3C01058B1206847
:102C0000C068C0F3C01030B16FF080002168086167
:102C10002046FFF797FE20680069C0F3801058B186
:102C20002068C068C0F3801030B16FF040002168A8
:102C30000861204600F08AF920680069C0F340105E
:102C400058B12068C068C0F3401030B16FF0200068
:102C5000216808612046FFF776FE10BD10B586B0EA
:102C60000446002002900390049005900E492068CD
:102C7000884216D100BF0D48806940F008000B491A
:102C800088610846806900F00800019000BF00BF1D
:102C90004020029002200390059002A90448FEF70C
:102CA00075FD06B010BD0000000800400010024095
:102CB000000C014070472DE9F04104460D461646D0
:102CC000002700BF94F83C00012802D10220BDE893
:102CD000F081012084F83C0000BF36B1042E1BD0E7
:102CE000082E31D00C2E5ED145E02946206800F038
:102CF000F7FC2068806940F008002168886120683E
:102D0000806920F004002168886120688069296951
:102D100008432168886148E02946206800F010FDDA
:102D20002068806940F400602168886120688069BB
:102D300020F480602168886120688069296940EA00
:102D400001202168886130E02946206800F02CFDD0
:102D50002068C06940F008002168C8612068C06927
:102D600020F004002168C8612068C069296908430F
:102D70002168C86119E02946206800F049FD2068F3
:102D8000C06940F400602168C8612068C06920F40F
:102D900080602168C8612068C069296940EA012013
:102DA0002168C86101E0012700BF00BF00BF00200B
:102DB00084F83C0000BF384689E710B504460CB9DA
:102DC000012010BD94F83D0028B9002084F83C0093
:102DD000204600F025F8022084F83D00211D2068DF
:102DE00000F02AFC012084F8460000BF84F83E0071
:102DF00001213F200155402001554120015500BFD0
:102E000000BF012084F842004320015544200155B1
:102E10004520015500BF012084F83D000020D0E787
:102E200008B5094A016891420DD100BF0749C96937
:102E300041F00401054AD1611146C96901F004015C
:102E4000009100BF00BF08BD000800400010024014
:102E50007047000070B504460D4615B994F83E0061
:102E60000BE0042D02D13F20005D06E0082D02D1C9
:102E70004020005D01E04120005D012801D00120DB
:102E800070BD1DB9022084F83E000EE0042D03D170
:102E900002213F20015508E0082D03D102214020E6
:102EA000015502E0022141200155012229462068F6
:102EB00000F004FC1B492068884201D1012000E099
:102EC000002028B12068406C40F40040216848642C
:102ED0001449206888420FD02068B0F1804F0BD091
:102EE00011492068884207D010492068884203D0E1
:102EF0000F49206888420CD12068806800F00706DE
:102F0000062E0CD02068006840F00100216808609F
:102F100005E02068006840F001002168086000209A
:102F2000AEE70000002C0140000400400008004013
:102F3000000C004010B5044603492068884201D1C6
:102F4000FEF7C0FD10BD000000140040704700BF38
:102F5000FEE7000000B587B01C216846FDF75BFA6C
:102F6000284829490860811527488160002101739C
:102F700001754FF46021C16100202349486001219F
:102F800021480161FDF768FE08B1FDF75CFB0820F0
:102F900000900120019004200490052002904FF43D
:102FA000E040069000208DF815008DF81400039085
:102FB00069461548FDF7D8FB08B1FDF744FB092029
:102FC00000900220019069460F48FDF7CDFB08B143
:102FD000FDF739FB0E2000900320019069460A4856
:102FE000FDF7C2FB08B1FDF72EFB0F200090042077
:102FF000019069460448FDF7B7FB08B1FDF723FBD4
:1030000007B000BD002401400001002010B5264893
:103010002649086004204860002124488160C1607E
:103020004FF4602101614FF480114161002101766C
:10303000012141768176C176002101774177FEF743
:103040009FF908B1FDF7FFFA08201949086100202F
:103050008860C8604FF4407008600020087515490A
:1030600048610120886100200861486246F2606082
:10307000086048608860C8600020C861012008625C
:103080000A48FDF7F9FE08B1FDF7DDFA0748FEF73B
:10309000C4FA08B1FDF7D7FA03210448FDF7D6FEBC
:1030A00008B1FDF7D0FA10BD0064004030010020E7
:1030B000B4010020E80100201CB500200090019020
:1030C0000A480B4908600846FEF714FB08B1FDF7F3
:1030D000BAFA002000900190002269460448FEF7E9
:1030E000D2FA08B1FDF7AFFA1CBD00000074004031
:1030F0005801002000B585B0002001900290039097
:10310000049000BF3148806940F020002F49886159
:103110000846806900F02000009000BF00BF00BF9B
:103120000846806940F0040088610846806900F024
:103130000400009000BF00BF00BF0846806940F057
:10314000100088610846806900F01000009000BF00
:1031500000BF00BF0846806940F00800886108464B
:10316000806900F00800009000BF00BF00224021ED
:103170001748FEF79BFC00224FF4E0711548FEF75C
:1031800095FC402001900120029000200390032034
:10319000049001A90E48FEF7F9FA042001900020DE
:1031A00002900220039001A90B48FEF7EFFA4FF4BA
:1031B000E07001900120029002200390032004900F
:1031C00001A90448FEF7E2FA05B000BD0010024074
:1031D0000008014000100140000C014000B589B01A
:1031E0000020079008901C216846FDF714F9194843
:1031F000194908604720486000211748816040F263
:10320000CF71C160002101618161FFF7D6FD08B176
:10321000FDF719FA00200790089007A90E48FFF75C
:1032200093FB08B1FDF70FFA6020009040F2E73001
:103230000190002002900490002269460648FFF7A2
:103240003AFD08B1FDF7FFF90348FFF707FD09B0A4
:1032500000BD0000000800406C0100200EB500BF5A
:1032600000204FF07E52CDE900204FF041434FF057
:1032700082420290054801680548006800F010F895
:1032800004490860012000F0C6FBE9E7480000207F
:10329000600000205400002000BFFEE700BFFEE7F2
:1032A0002DE9FF4F8BB015461E4600200A9008906E
:1032B00007900690DDE90B0102F0F2F90446214681
:1032C000189802F0E5F809902146199802F0E0F804
:1032D000019001F0EDFE07461F4A204B01F000FD72
:1032E000CDE90401079801F0E3FECDE90201DDE933
:1032F000042301F0F5FA824601F0C0FA8146204627
:103300000A9902F0CDF904901A9902F0C1F80590DB
:1033100001F0CEFE8246104A104B01F089FB0746B1
:1033200001F0ACFA08900A94CDF81C90494609982F
:1033300001F0EAFE0746089901F0E6FE06903146E4
:10334000069800F0E4FA0746294600F0F4FA0690E1
:1033500006980FB0BDE8F08FFCA9F1D24D62503F46
:1033600008B508490968C9084FF47A72B1FBF2F14F
:103370004143009100BF00BF00994A1E00920029FE
:10338000F9D108BD9C00002038B54E4800780028CF
:103390007ED000204B4908704B48008800B24B4952
:1033A00008804948408800B24949088046488088DA
:1033B00000B2484908804448C08800B246490880A5
:1033C00000204149088048808880C8803F48B0F983
:1033D000000002F011F80546404902F059F8044691
:1033E0003F4901F047FF3F4908603948B0F9000004
:1033F00002F002F80546394902F04AF80446384915
:1034000001F038FF384908603248B0F9000001F097
:10341000F3FF044635480023314A19460090204600
:1034200000F038FA324908602B48B0F9000001F08A
:10343000E3FF04462D480023294A19460090204600
:1034400000F028FA2B4908602B48026825480168DB
:103450002A4800F043FA2A4908602A4802682248AC
:103460000168264800F03AFA274908601748B0F981
:10347000000001F0C1FF204908601548B0F90000C4
:1034800001F0BAFF1F49086020480268184800E0B0
:1034900016E00168194800F021FA1D4908601D482E
:1034A000026814480168154800F018FA1A490860C3
:1034B0000F480068154908600E4800681549086003
:1034C00038BD00000A000020020000201800002083
:1034D000280000203C0000204C0000200000C842D2
:1034E00000F07F450C0000201C000020000020415F
:1034F000300000204000002010000020CDCC4C3EC9
:1035000014000020200000202400002034000020AF
:1035100038000020440000204800002000BFFFF7D2
:1035200033FF0A490A48006801F0B2FF0949086000
:10353000084601680648006801F0E6FD0649086093
:10354000FDF74CF8012000F066FAE8E7B072983F0A
:1035500024000020140000202C00002010B500BF23
:10356000502080F31188BFF34F8FBFF36F8F00BFE0
:1035700001F05EF818B14FF080500449086000BFB8
:10358000002080F3118800BF10BD000004ED00E0B2
:1035900000B59BB038210DA8FCF73DFF142108A809
:1035A000FCF739FF20216846FCF735FF01200D901C
:1035B00000040F90002010900120129000200E9027
:1035C00002201590C10316914FF4E01117910020CD
:1035D00018900DA8FEF700FF08B1FDF734F80F2092
:1035E00008900220099000200A904FF480600B9010
:1035F00000200C90022108A8FEF76CFD08B1FDF731
:1036000022F802200090800302906846FEF75AFCE0
:1036100008B1FDF718F80120014908671BB000BD8B
:10362000000042427047000010B50248FFF74BFA15
:1036300010BD00006404002010B502681B4B9842C6
:103640000BD0B0F1804F08D0194B984205D0194BE0
:10365000984202D0184B984203D122F070024B6876
:103660001A43124B98420BD0B0F1804F08D0104B48
:10367000984205D00F4B984202D00F4B984203D18D
:1036800022F44072CB681A4322F080034C6943EA6B
:10369000040202608B68C3620B688362034B98422A
:1036A00001D10B6903630123436110BD002C01406C
:1036B0000004004000080040000C004030B501F05C
:1036C0001F05012404FA05F3046A9C430462046A9A
:1036D00001F01F0502FA05F52C43046230BD00001D
:1036E00030B5026A056A25F0010505624368846900
:1036F00024F0700424F003040D682C4322F002022D
:103700008D682A430D4DA84206D100BF22F0080261
:10371000CD682A4322F00402084DA84207D123F4C1
:10372000807323F400734D692B438D692B434360F1
:1037300084614D684563026230BD0000002C014089
:1037400030B5026A056A25F0100505624368846990
:1037500024F4E04424F440740D6844EA052422F083
:1037600020028D6842EA05120E4DA84207D100BF23
:1037700022F08002CD6842EA051222F04002094D93
:10378000A84209D123F4806323F400634D6943EA1E
:1037900085038D6943EA8503436084614D688563D1
:1037A000026230BD002C014030B5026A056A25F482
:1037B000807505624368C46924F0700424F0030432
:1037C0000D682C4322F400728D6842EA05220F4DE9
:1037D000A84207D100BF22F40062CD6842EA052268
:1037E00022F48062094DA84209D123F4805323F4C6
:1037F00000534D6943EA05138D6943EA051343609D
:10380000C4614D68C563026230BD0000002C0140F8
:1038100030B5036A056A25F4805505624468C269BB
:1038200022F4E04222F440720D6842EA052223F4B9
:1038300000538D6843EA0533064DA84204D124F4B1
:1038400080444D6944EA85144460C2614D68056452
:10385000036230BD002C014000BFFEE70248006853
:10386000C0F30220704700000CED00E010B5002806
:1038700004DB0A07130E054A135406E00A07140E68
:10388000034A00F00F031B1FD45410BD00E400E0F6
:1038900018ED00E02DE9FC5F06460F4614461D4674
:1038A000DDF830802946404601F0FAFE39460190A5
:1038B000204601F0F5FE83463946304601F0F0FE21
:1038C0005946009001F0D6FC8246019901F0E0FDD6
:1038D0008146294601F018FCBDE8FC9F2DE9F04720
:1038E00005460E4614464FF07E51284601F0CDFEA7
:1038F0008146214601F0CCFD07463146284601F0BD
:10390000C7FD8046394601F0FFFBBDE8F08770B582
:103910000C46054601F083FC00F07040B0F1005FFA
:1039200007D024F00040C0F1FF40C00F04BF204684
:1039300070BD284670BD70B50C46054601F06FFCA1
:1039400000F07040B0F1004F07D024F00040C0F10B
:10395000FF40C00F04BF204670BD284670BD000068
:1039600096B0FEF7BBF8FFF713FEFFF7C3FBFFF7B8
:10397000F1FAFFF733FCFFF79FFBFFF747FB01224C
:1039800011021A48FEF792F840211948FFF762FA2F
:103990001848FCF75BFE1748FDF758F81C2216493B
:1039A0000FA8FCF706FD00210FA800F045F8134909
:1039B00008601C2210491C3108A8FCF7FAFC002101
:1039C00008A800F039F80E4908601C220A4938316D
:1039D00001A8FCF7EEFC002101A800F02DF8094930
:1039E000086000F024F800BFFEE70000001001406E
:1039F0006C010020000100208C5700086C000020A2
:103A0000700000207400002001460020842901D0AD
:103A1000CA1C1044704770B5044625460DB12946AE
:103A200000E00121084600F025FC002070BD10B523
:103A300000F04EFC002010BD7FB504460D466069C5
:103A400098B1A06988B1B4F90800FFF7DDFF064618
:103A5000D4E90510CDE9006102902B462269D4E932
:103A6000001000F089FD039013E0B4F90800FFF79F
:103A7000CBFF064603A8CDE90060238A9AB22B4605
:103A8000D4E9001000F046FD012802D0002004B067
:103A900070BD0398FBE700002DE9F04105460E4696
:103AA0001C4807681C480068001D00F0E6FA50B981
:103AB0001948006890F82C100120884017490968BF
:103AC000814316480160681C38B936B11248016854
:103AD000091D134800F01CFB1AE07C190E48006811
:103AE0004460BC4207D20C480168091D0D480068BB
:103AF00000F0F4FA0CE008480168091D0A48006863
:103B000000F0ECFA09480068844201D207480460DA
:103B1000BDE8F081B4000020A0000020B800002023
:103B200088050020A8000020A4000020D00000206C
:103B300010B5044600F0F8FA23480068401C2249FA
:103B400008602248006840B92048046008460068C0
:103B500001280DD100F03AF90AE01D48006838B993
:103B60001A480068C06AE16A884201D817480460B0
:103B700018480068401C1749086094F82C10012070
:103B8000884015490968084313490860E16A01EB58
:103B90008101124A02EB8100211D00F0B9FA00F008
:103BA000EDFA0B48006868B108480068C06AE16A2D
:103BB000884207D24FF0805009490860BFF34F8F09
:103BC000BFF36F8F10BD0000B0000020A0000020E8
:103BD000BC000020CC000020B8000020AC04002075
:103BE00004ED00E010B516E000F09EFA0C48C06845
:103BF000C468201D00F041FA0A480068401E0949C7
:103C0000086009480068401E0749086000F0B6FADD
:103C1000204600F00BF8044800680028E4D110BDED
:103C200074050020B0000020AC00002010B5044650
:103C300094F8510030B9206B00F0BEFA204600F035
:103C4000BBFA1AE094F85100012803D1204600F095
:103C5000B3FA12E094F85100022801D1012000E0EB
:103C6000002050B900BF502080F31188BFF34F8F60
:103C7000BFF36F8F00BF00BFFEE710BD30B54FF43C
:103C80008053174800F007042CB1C01D20F0070036
:103C9000134C041B1B1B0246124C22600024114DC6
:103CA0006C60D018083820F007000F4C206000240A
:103CB0000D4D2D686C600C4D2D682C601146441A1A
:103CC0004C60094C24680C60084D4C682C60084D11
:103CD0004C682C604FF00044064D2C6030BD000055
:103CE0009C050020DC000020E4000020EC00002007
:103CF000E8000020F000002000BFFFF773FF064837
:103D000000680128F9D94FF0805004490860BFF3DA
:103D10004F8FBFF36F8FF0E7AC04002004ED00E09D
:103D20002DE9FF5F81460F469246DDE90E6B109C40
:103D3000AAF10100216B01EB800828F0070808F0C8
:103D4000070008B9012000E0002050B900BF502052
:103D500080F31188BFF34F8FBFF36F8F00BF00BF99
:103D6000FEE7002507E0795D04F134004155785DF8
:103D700000B902E06D1C102DF5D300BF00214320D7
:103D80000155072E00D30626E66266640020A06473
:103D9000201D00F0A0F904F1180000F09CF9246146
:103DA000C6F10700A06164620020E06484F850005E
:103DB00049464046039A00F049F92060BBF1000FE4
:103DC00001D0CBF80040BDE8FF9F000010B50024F3
:103DD00007E004EB84010F4A02EB810000F06EF96A
:103DE000641C072CF5D30C4800F068F90B4800F070
:103DF00065F90B4800F062F90A4800F05FF90A48DB
:103E000000F05CF904480949086004480849086062
:103E100010BD0000AC040020380500204C05002037
:103E2000600500207405002088050020A400002003
:103E3000A800002010B50146164800E0006803689D
:103E40008B42FBD30246436813448B4204D1436840
:103E50004C682344436001460A464B681344046897
:103E6000A34211D10C4C03682468A34208D04B68CC
:103E70000468646823444B6003681B680B6005E0BA
:103E8000054B1B680B6001E003680B60884200D0A3
:103E9000016010BDDC000020E40000200A49096830
:103EA000096809B9012100E0002121B14FF0FF317B
:103EB000064A116006E004490968C968C868034AEF
:103EC0004168116070470000A4000020D00000206D
:103ED0000E480068401C08B9012000E0002050B9DD
:103EE00000BF502080F31188BFF34F8FBFF36F8F57
:103EF00000BF00BFFEE700BF502080F31188BFF372
:103F00004F8FBFF36F8F00BF00BFFEE7F4000020AC
:103F10002DE9F04104464FF0000800F031FA464820
:103F2000006808B9FFF7AAFE44480068204000284E
:103F30006BD1D4B1083404F00700B0B104F007002D
:103F4000C0F10800044404F0070008B9012000E0B3
:103F5000002050B900BF502080F31188BFF34F8F6D
:103F6000BFF36F8F00BF00BFFEE7002C4DD0344879
:103F70000068844249D8334E3046056801E02E4639
:103F80002D686868A04202D228680028F7D12A4824
:103F90000068854239D0306800F108082868306030
:103FA0006868001B102819D92F1907F0070008B9F5
:103FB000012000E0002050B900BF502080F311889C
:103FC000BFF34F8FBFF36F8F00BF00BFFEE768687E
:103FD000001B78606C603846FFF72CFF1849686852
:103FE0000968081A164908600846006816490968F1
:103FF000884203D212480068134908600F49686874
:104000000968084368600020286000F0B5FB08F0EC
:10401000070008B9012000E0002050B900BF50207F
:1040200080F31188BFF34F8FBFF36F8F00BF00BFC6
:10403000FEE74046BDE8F081E4000020F0000020EB
:10404000E8000020DC000020EC000020001F4FF002
:1040500080730360001F21F001030360001F034B06
:10406000036014380260203870470000D13E000819
:1040700000BF0120FFF7CFFCFBE701460A69D1E949
:1040800001309860D1E9010358605068884201D13D
:1040900088685060002008611068401E1060106839
:1040A00070470000034B0360034B0B6080231360D9
:1040B00070470000100200206402002000F1080197
:1040C00041604FF0FF31816000F10801C160016182
:1040D00000210160704700210161704710B5024660
:1040E0000B685C1C0CB9106907E002F1080000E0E5
:1040F0004068446824689C42FAD944684C604C6823
:10410000A160886041600A611468641C146010BD7D
:1041100042684A6093688B60936859609160086157
:1041200003685B1C0360704700BF502080F3118858
:10413000BFF34F8FBFF36F8F00BF0E480068401C66
:104140000C49086008460068012812D10A48006836
:10415000C0B208B9012000E0002050B900BF5020D3
:1041600080F31188BFF34F8FBFF36F8F00BF00BF85
:10417000FEE77047F400002004ED00E00D48006801
:1041800050B900BF502080F31188BFF34F8FBFF3A9
:104190006F8F00BF00BFFEE706480068401E05495C
:1041A00008600846006820B9002080F3118800BF2D
:1041B00000BF7047F400002070B506463546002E5B
:1041C0003FD0083D2C461F4960680968084008B187
:1041D000012000E0002050B900BF502080F311887A
:1041E000BFF34F8FBFF36F8F00BF00BFFEE72068A4
:1041F00008B9012000E0002050B900BF502080F332
:104200001188BFF34F8FBFF36F8F00BF00BFFEE772
:104210000C4960680968084098B1206888B9094964
:10422000606809688843606000F0AAF80649606821
:1042300009680844044908602046FFF7FBFD00F0C8
:104240009BFA70BDF0000020E800002000204FF035
:10425000E02108618861064800684FF47A71B0FB7C
:10426000F1F0401E4FF0E0214861072008617047DF
:104270009C00002070B504460025D4B112480068A7
:1042800008B9012000E0002050B900BF502080F3A1
:104290001188BFF34F8FBFF36F8F00BF00BFFEE7E2
:1042A00000F06EF800212046FFF7F6FB00F064FAFC
:1042B00005463DB94FF0805004490860BFF34F8F69
:1042C000BFF36F8F70BD0000D800002004ED00E048
:1042D00010B586B000200590049003AA04A905A893
:1042E000FFF7E0FE0022DDE904101346CDE90021CE
:1042F00002901CA11D48039A00F03EF91C49086079
:104300000846006808B1012400E00024012C15D102
:1043100000BF502080F31188BFF34F8FBFF36F8F22
:1043200000BF4FF0FF3013490860012012490860B8
:1043300000201249086000F071F810E0601C08B11C
:10434000012000E0002050B900BF502080F3118808
:10435000BFF34F8FBFF36F8F00BF00BFFEE706B004
:1043600010BD000049444C4500000000F93C000825
:10437000D4000020D0000020BC000020B4000020A9
:1043800002480068401C014908607047D8000020BE
:104390001D48006818B101201C49086032E0002067
:1043A0001A4908601A480068B0FA80F0C0F11F018D
:1043B00001EB8100174A52F8200008B1012000E00B
:1043C000002050B900BF502080F31188BFF34F8FF9
:1043D000BFF36F8F00BF00BFFEE701EB81020D4B03
:1043E00003EB820042685268426000F108024368B1
:1043F000934202D14268526842604268D268064BDA
:104400001A6000BF70470000D8000020C4000020E0
:10441000B8000020AC040020A00000201CB53849E2
:10442000084600780190FF200A4610700846007880
:1044300000909DF8000000F0F0009DF800209042F0
:1044400001D1012000E0002050B900BF502080F3CE
:104450001188BFF34F8FBFF36F8F00BF00BFFEE720
:104460009DF8000000F05000264A10700720264AF0
:10447000106009E024480068401E234A10609DF83F
:1044800000004006000E00909DF8000000F0800043
:104490008028EFD01C480068C0F10700042801D133
:1044A000012000E0002050B900BF502080F31188A7
:1044B000BFF34F8FBFF36F8F00BF00BFFEE71248FF
:1044C00000680002104A10601046008800F4E060A6
:1044D00010600B4A019810700C48006840F470009E
:1044E0000A4908600846006840F070400860FFF71D
:1044F000ADFE002006490860FBF78AFE00201CBDC7
:1045000000E400E0F8000020FC00002020ED00E0C6
:10451000F40000202DE9FF4F85B0804689461746FC
:10452000DDE912ABB800FFF7F3FC064656B15420A4
:10453000FFF7EEFC04460CB1266304E03046FFF7BB
:104540003BFE00E000248CB1002084F85100CDE94E
:1045500000ABCDE902403A4649464046089BFFF78A
:10456000DFFB2046FFF7E4FA012501E04FF0FF35BD
:10457000284609B0BDE8F08F2DE9F04F85B0074619
:10458000884691469A46DDE90EB6109C0EB1012090
:1045900000E0002050B900BF502080F31188BFF325
:1045A0004F8FBFF36F8F00BF00BFFEE70CB101203C
:1045B00000E0002050B900BF502080F31188BFF305
:1045C0004F8FBFF36F8F00BF00BFFEE754200390F3
:1045D0000398542801D1012000E0002050B900BF09
:1045E000502080F31188BFF34F8FBFF36F8F00BF50
:1045F00000BFFEE7B4B1AEB125462C462E630220C3
:1046000085F85100002004A953464A46CDE900B17F
:10461000CDE9025041463846FFF782FB2846FFF7B6
:1046200087FA01E000200490049805B0BDE8F08FFF
:104630002DE9F0414FF0000844480068002877D188
:1046400043480068451C4248056015BB4148006866
:10465000006808B9012000E0002050B900BF5020D8
:1046600080F31188BFF34F8FBFF36F8F00BF00BF80
:10467000FEE7384807683848006836490860364819
:10468000076036480068401C34490860FFF706FCA4
:1046900000BF3348006885423CD300BF2D48006806
:1046A000006808B9012000E0002020B14FF0FF3081
:1046B0002B4908602DE027480068C068C468666818
:1046C000B54202D22648066023E0201DFFF7D5FC44
:1046D000A06A18B104F11800FFF7CFFC94F82C1071
:1046E000012088401F49096808431E490860E16AA3
:1046F00001EB81011C4A02EB8100211DFFF708FD3F
:104700001A49E06A0968C96A8842C7D34FF00108AC
:10471000C4E700BF15480068C06A00EB800012497A
:1047200051F82000012801D94FF0010805E0FFE70A
:104730000F480068401C0E4908600E48006808B128
:104740004FF001084046BDE8F0810000D80000208D
:10475000B4000020A4000020A8000020C800002011
:10476000D0000020B8000020AC040020A0000020F1
:10477000C0000020C400002070B500240026364888
:10478000006850B900BF502080F31188BFF34F8FED
:10479000BFF36F8F00BF00BFFEE7FFF7C5FC2E48D9
:1047A0000068401E2C4908600846006800284FD168
:1047B0002A48006800284BD024E02948C068C46813
:1047C00004F11800FFF759FC201DFFF756FC94F880
:1047D0002C100120884023490968084321490860BA
:1047E000E16A01EB8101204A02EB8100211DFFF704
:1047F0008FFC1E49E06A0968C96A884202D3012019
:104800001B4908601648006808B9012000E0002034
:104810000028D2D00CB1FFF741FB1648056865B1FE
:1048200000BFFFF705FF10B10120114908606D1EA0
:10483000002DF6D100200F4908600D48006838B1FE
:10484000012630070C490860BFF34F8FBFF36F8F0D
:10485000FFF794FC304670BDD8000020B000002067
:1048600060050020B8000020AC040020A00000205B
:10487000C4000020C000002004ED00E021F0004250
:10488000A2F16052B2F5801F01F0004328BFD2F1BF
:104890007F6C0BD95FEA001C43EAC20242EB507006
:1048A00018BF704728BF20F001007047B2F5801F85
:1048B000BCBF184670474FEA410C1CF5001F02D2DE
:1048C000084600F0ACBE70B500F0B4FA00000089F4
:1048D000FFF7F6BF4FF00040A0F5800070470000E2
:1048E00010B591EA030F48BF83F0004300F1FE8248
:1048F000841A71EB030C05D2121943EB0C03001B55
:1049000061EB0C01DFF824E14FEA1154A4EB135CD6
:104910001EEA430F18BF9EEA445F73D023EA0E03DA
:10492000DCF1200E21EA045143F4801332D322FA41
:104930000CFE10EB0E0023FA0CFE41EB0E01CCF145
:10494000200E03FA0EFE10EB0E0051F10001B1F53E
:10495000801FCCF1200E32D201EB045112FA0EF27C
:10496000BDE8104058BF7047401C38BF5FEA4202A4
:1049700018BF7047002814BF20F0010041F100016A
:104980004FEA410313F5001F38BF7047A1F1C04142
:1049900000F09EBA012A43EB0302ACF1200CDCF1DB
:1049A0001F0E32BF4FF0000E23FA0CF310EB030082
:1049B00041EB0451B4EB115FD0D0A1EB045101F5F0
:1049C000801149085FEA300001EB04510ED350F129
:1049D000000038BF12FA0EFE08D1BDE81040C9E74A
:1049E000401C38BF5FEA4202CAD1C3E7BDE81040AD
:1049F0004FEA410313F5001F38BF7047A1F1C041D2
:104A000000F066BA9EEA445F08D011EA5E0FBDE886
:104A1000104004BF01F0004100207047BDE8104085
:104A200070B500F007FA00BF64FBBE3E0000E0FF77
:104A30002DE9C04130B4DFF8A0C23CEA111418BF20
:104A40003CEA131400F0EC8081EA03051CEA11141F
:104A500044EAD57418BF1CEA131500F0C780A4EB14
:104A600005044FF0004545EAC12145EAC32341EA68
:104A7000505143EA525304F17F74994204F50034D3
:104A80004FEAC0204FEAC22208BF904200F09C804B
:104A90004FEA13650FF24016765D4FEA134506FBA9
:104AA00005F7C7F1807706FB07F74FEAD737A7FB73
:104AB00003687642C8F58038A7FB06CE38BFA8F158
:104AC000010807FB08E64FF0000EA6FB028CE6FB90
:104AD00003CEDCF1000CCEF1004E38BFAEF1010E7A
:104AE000A6FB0C584FF000074FF00005E6FB0E87C1
:104AF000A1FB08C6A0FB07CE16EB0E0645F100058C
:104B0000E1FB076515F1E04E7EBFA4F580345FEA56
:104B100046066D4116F1800745F100054FEA17275B
:104B20004FEA066647EA0567A6F1DE46B6F1805F02
:104B30004FEA15251FD9384624F0010C05EBC47146
:104B4000BCF1FE6F01EB0C1102D8F0BCBDE8008196
:104B500024425CBF01F5801E9EEAC47F02D4F0BCF3
:104B6000BDE80081244238D4F0BCA1F1C041BDE8C9
:104B7000004100F0ADB94FEAD22242EA43524FEA77
:104B8000D323A7FB02864FEAD02040EA415007FB1F
:104B900003661EEA0E0F4FEAD12105FB026658BFDD
:104BA000A6EB0056B6EB00564FEA520E4EEAC37E15
:104BB00018EB0E0E56EB530EBDD518EB02085E41F6
:104BC0007F1C55F10005B6E74FF480154FF0000744
:104BD0004FF000064FF00008ADE7F0BC4FF00000CA
:104BE00001F1C04101F00041BDE8008111EA0C1F54
:104BF0000CEA131500D00CE013EA0C1F00F025801E
:104C00004FF00000F0BC81EA030101F00041BDE873
:104C10000081F0BCBDE8004181EA030100F058B911
:104C2000F0BCBDE8004170B500F004F9097EFC3E1F
:104C300000F007B881EA03014FF0000001F00041E5
:104C4000704781EA030100F043B9F0BCBDE80041C0
:104C50004FF0000021497047FFFDFBF9F7F5F4F232
:104C6000F0EEEDEBE9E8E6E4E3E1E0DEDDDBDAD807
:104C7000D7D5D4D3D1D0CFCDCCCBCAC8C7C6C5C465
:104C8000C2C1C0BFBEBDBCBBBAB9B8B7B6B5B4B37C
:104C9000B2B1B0AFAEADACABAAA9A8A8A7A6A5A467
:104CA000A3A3A2A1A09F9F9E9D9C9C9B9A9999982B
:104CB0009797969595949393929191908F8F8E8ECE
:104CC0008D8C8C8B8B8A898988888787868585845B
:104CD00084838382828181800000FF070000F87F47
:104CE000DFF848C170B51CEA111E1EBF1CEA13157F
:104CF0009EEA0C0F95EA0C0F00F06F8081EA030426
:104D000023EA4C134EEAD47E21EA4C1141F480117F
:104D100043F48013AE44A1FB024CA0FB0365AEF14B
:104D20007F7E361955EB0C05A1FB034C4CF10003BB
:104D3000A0FB021C16EB0C06654153F1000309426F
:104D400018BF46F0010613F4007F0BD14FEA033180
:104D50004FEA0530340341EA155140EA16506FF02E
:104D600003020AE04FEAC3214FEAC520F40241EAF8
:104D7000555140EA56506FF0020202EB2E4201EB11
:104D8000025585EACE710AD05FEA440C18BF24F0C0
:104D9000004450F1000041F1000120EAD47040F2DB
:104DA000FE7C624500D270BDA84214BF4FF0804423
:104DB0004FF04044002E08BF0024BEF1806FA8BF12
:104DC000A1F1C041BDE8704080F282804FF0000048
:104DD00001F1C04101F0004170479EEA0C0F0CEA5E
:104DE000131518BF95EA0C0F06D04FF0000081EAAA
:104DF000030E0EF0004170BD00F01CF88900013E6A
:104E000000F007B800F009B84FEA430C5FEA5C5CB9
:104E100008D081EA030100F05BB84FEA410C5FEA79
:104E20005C5CF6D14FF00000014970470000FF07BD
:104E30000000F87F0EF1020E2EF0030E5EF8046BF8
:104E4000364205D4012A43EB030515F5001F12D89D
:104E5000012841EB010C1CF5001F0CD80ED14FEAC4
:104E6000D17C15F5001F0CEB4C0C0CF1020C08BFAB
:104E70004CEBD37C04E04FF0080C01E04FEAD37C0C
:104E80000CEB4C0526FA05F606F00706B6F1040C05
:104E900006D20EEB860CBDE870404CF0010C60476A
:104EA000DFE80CF0090B02024FF000414FF0000068
:104EB000A1F5002170BD19461046012851EB0104EF
:104EC00018BFD4F5001484BF002001F0004170BD6C
:104ED0000808A0F500114FEA3101704710B591EABA
:104EE000030F48BF83F000433FF502AD841A71EB16
:104EF000030C07D212198CF0004C43EB0C03001B7F
:104F000061EB0C01DFF8A4E14FEA1154A4EB135C50
:104F10001EEA430F18BF9EEA445F00F0B08023EA08
:104F20006E03524221EA0451C3EB6E0338BF5B1E8D
:104F3000DCF1200E25D322FA0CFE10EB0E0043FA12
:104F40000CFE41EB0E01CCF1200E03FA0EFE10EB2D
:104F50000E0051F10001CCF1200E29D412FA0EF20C
:104F600001EB0451BDE8104058BF7047401C1CBF06
:104F7000B2F1004F704700280CBF491C20F001001F
:104F8000704712EB020E43EB030218BF4FF0010E05
:104F90004EEA4202ACF1200CDCF11E0E54D943FA69
:104FA0000CFE10EB0E0051F1FF31CCF11E0ED5D5E9
:104FB0000EF1010E12FA0EFE404141EB010101EB30
:104FC000445C5FEA5C5C10D910EBDE7001EB0451CD
:104FD00038BFBEF1004FBDE8104018BF7047002831
:104FE0000CBF491C20F00100704730D24FEAD42C8E
:104FF00011F5001124F400641BD0B1FA81F20B3AD0
:10500000A41AA41ED2F12003914030FA03F31943ED
:10501000904001EBCC71002C01EB0451BDE8104035
:10502000A8BF704701F1C0414FF0000001F00041FE
:105030007047B0FA80F310FA03F100D110BDE41A02
:10504000173C4805C90AE4E701EB045110BD4910BB
:1050500001EB0451BDE810404FEA300002E04FF090
:10506000000170474A0008BF0042F8D0B2F5001FA7
:1050700028BF704701F000414FF0000070479EEAE2
:10508000445F07D011EA5E0FBDE8104004BF002165
:1050900000207047BDE8104070B5FFF7CBFE00BFA1
:1050A00040DFF63E83F00041104670470000E0FF0D
:1050B00043004FEAD30C4FEA3C0C43401FBF40076C
:1050C0000CF1605113F0FE4F70471CF0006F03D1DC
:1050D00000200CF0004170470CF0004343EA507090
:1050E00010B540EACC0000F054FA00BF0000009276
:1050F0004FEA0001FFF7ECBE4FF000414FF0000017
:10510000A1F500217047000090EA010F48BF81F02F
:10511000004100F1CC82421A3CBF801A89184FEA44
:10512000D0524FF07F4C1CEA410FA2EBD15318BF75
:105130009CEA026F00F03B804FF0004C4CEA0020EC
:105140004CEA012121FA03FC10EB0C0C1ED202F1F7
:10515000FF325FEA1C2040EBC25038BF70471CF0A2
:105160007F0F4FEA400C18BFBCF17F4F38BF70472C
:10517000C3F12003994008BF20F00100BCF17F4F2C
:1051800038BF7047A0F1C04000F049BA4FEA3C0078
:10519000000A40EBC25028BF1CF0FF0F4FEA400C42
:1051A000E6D018BFBCF17F4F38BF7047EAE79CEAF2
:1051B000026F05D010EA5C0F08BF00F00040704796
:1051C00010B500F0E6F900BF64FBBE3E50EA010CEA
:1051D00000F113801CF5000F58BFBCF5000F01D47F
:1051E0008842704707D710F5000F58BF11F5000F20
:1051F00022D488427047894270471CF5000F04D5BD
:10520000BCF5000FF7D5814270474FF0807C1CEB56
:10521000400F38BF1CEB410F0ED28142704710B5D2
:10522000FFF7D4FFEFF3008020F0104038BF40F0CC
:10523000004080F3008810BDBDE8104010B500F0BC
:10524000A8F900BF0000000900F007B84FF0404087
:1052500010F1004FEFF300807047401058BFC0F1CD
:105260004040491058BFC1F140418142EFF30080F6
:10527000704700004FF47F0C1CEAD0121EBF1CEADE
:10528000D11392EA0C0F93EA0C0F00F0858090EA9C
:10529000010F48BF42F4807240F4000C41F400005A
:1052A0002CF07F4120F07F4000B58142A2EB030249
:1052B0000FF2081CACEB504EC0F100009EF800E06D
:1052C0004FEA4E0E00FB0EFC38BF49004FEA2C1C83
:1052D00002F5FA020CFB0EF34FEACE1E4FEA112C38
:1052E0004FEAC1210EEB635E42EB22420EFB0CFC47
:1052F0004FEA1C5300FB03114FEA112C4FEA013116
:105300000EFB0CFC4FEADC4C00FB0C11C14228BF29
:1053100009184CEB03335DF804EB10EB410143EB50
:10532000C250B2F57C0F38BF704729D512F0F00F8C
:105330001CBF00F1C04000F0004070470081828334
:105340008485868788898B8C8D8E8F919293959694
:1053500097999A9C9D9FA0A2A3A5A7A8AAACAEB01E
:10536000B2B3B5B7B9BCBEC0C2C5C7C9CCCED1D423
:10537000D7D9DCDFE2E6E9ECF0F3F7FAFE00000053
:105380004FEA400C0CF1807CBCF17E4F28BF704787
:10539000B0F1C04000F043B990EA010F0CEAD1131C
:1053A00048BF42F48072624538BF634507D213F4A8
:1053B0007F0F16D080EA010000F00040704710B562
:1053C00000F0E7F8097EFC3E00F005B880EA010035
:1053D00000F00040704780EA010000F0004000F05B
:1053E0001EB912F47F0F04BF0248704780EA010023
:1053F00000F015B90000C07F10F0004148BF4042E6
:10540000B0FA80F310FA03F2C3F19D030BD051EA16
:10541000C35101EB1220530638BF704700F1010061
:1054200008BF20F00100704750EA010C00F1138022
:105430001CF5000F58BFBCF5000F01D4884270471F
:1054400007D710F5000F58BF11F5000F15D488428B
:105450007047894270471CF5000F04D5BCF5000F5A
:10546000F7D5814270474FF0807C1CEB400F38BF6E
:105470001CEB410F01D28142704710B500F089F852
:10548000922449004FF000504FF08051FFF7E5BEE5
:105490004FF47F0C1CEAD0121EBF1CEAD11392EA13
:1054A0000C0F93EA0C0F00F0478090EA010F48BF01
:1054B00042F480724FF0004C4CEA00204CEA01218B
:1054C00002EB0302A0FB0113A2F50002002918BFA2
:1054D00043F001035B0028BF4FEA330342EB224253
:1054E0005FEA132C4CEBC2502EBFBCEB436FB2F5FE
:1054F0007C0F70474FEA036CBCF1004F08BF20F0EF
:105500000100B2F57C0F38BF70470BD582F0FF0267
:1055100012F5803FC8BF704700F1C040D8BF00F00F
:105520000040704700F5000C5FEA4C0C48BF704724
:10553000B0F1C04000F073B890EA010F0CEAD1134B
:1055400048BF42F48072624538BF634504D280EAA6
:10555000010000F00040704710B500F01AF800BFDD
:105560008900013E00F007B800F009B85FEA410C7D
:105570005FEA1C6C08D080EA010000F050B85FEAD6
:10558000400C5FEA1C6CF6D14FF00040A0F58000A3
:1055900070470EF1020E2EF0030E5EF8044B24420B
:1055A00004D44FEA4102B2F17F4F11D84FEA4003D1
:1055B000B3F17F4F0CD80ED14FEAD07CB2F17F4FC0
:1055C0000CEB4C0C0CF1020C08BF4CEBD17C04E052
:1055D0004FF0080C01E04FEAD17C0CEB4C0324FAAD
:1055E00003F404F00704B4F1040C06D20EEB840CAF
:1055F000BDE810404CF0010C6047DFE80CF00708F4
:1056000002024FF00040A0F5800010BD08464200A5
:1056100018BFD2F1807288BF00F0004010BDFF219A
:1056200041EAD050C005704751EA000C00F11380E8
:105630001CF5000F58BFBCF5000F01D48142704724
:1056400007D711F5000F58BF10F5000F15D4814290
:105650007047894270471CF5000F04D5BCF5000F58
:10566000F7D5884270474FF0807C1CEB410F38BF64
:105670001CEB400F01D28842704780EA010081EAAA
:10568000000180EA0100FFF7F8BE80F0004090EAD8
:10569000010F7FF540AD81F0004100F008B8000037
:1056A00090EA010F48BF81F000413FF534AD421A46
:1056B00004D882F00042A0EB020011444FEAD0521D
:1056C0004FF07F4C1CEA410FA2EBD15318BF9CEA6C
:1056D000026F4AD04FF0004C4CEA00204CEA012106
:1056E00021FA03FCB0EB0C0C0FD412F0FE0F36D0F5
:1056F0005FEA4C001DD5001240EBC25038BF704726
:105700001CF03F0F18BF70470BE0A2F101025FEAE7
:105710001C2040EBC25038BF70471CF07F0F18BFF1
:105720007047C3F12003994014BF401E20F00100D0
:10573000704780084FEA122308BF7047B0FA80FC18
:10574000A2EB0C02CCF1280C60FA0CF093EA122FB9
:1057500004BF00EBC25070474FEAC3707047130A92
:105760005FEADC1008BF7047F6E79CEA026F04D0DE
:1057700010EA5C0F08BF0020704710B5FFF709FF63
:1057800040DFF63E81F000407047000050580008AE
:105790001D3500080100000000000000800000002E
:1057A000000000000000000044580008714000089C
:1057B0000200000000000000800000000000000067
:1057C00000000000345800085D32000800000000AE
:1057D00000000000000100000000000000000000C8
:1057E000000004050607080900000000000D010282
:1057F000030405060708090A0B0C0D0E0F10000024
:1058000004050607080900000000000D010203045A
:1058100005060708090A0B0C0D0E0F10000000000A
:105820000000000001020304060708090000000050
:10583000010203044D616E616765537973546173AE
:105840006B00000073757065727669736F7200008B
:105850007265616453656E736F7273007C580008E3
:1058600000000020000100008C0100087C590008A5
:1058700000010020001B0000A8010008000000003B
:105880000000000000000000000000000000000018
:105890000000000000000000000000000000000008
:1058A00000000000000000000000000000000000F8
:1058B00000000000000000000000000000000000E8
:1058C00000000000000000000000000000000000D8
:1058D00000000000000000000000000000000000C8
:1058E00000000000000000000000000000000000B8
:1058F00000000000000000000000000000000000A8
:105900000000000000000000000000000000000097
:1059100010000000010000000024F400000000005E
:105920000000000000000000000000000000000077
:105930000000000000000000000000000000000067
:105940000000000000000000000000000000000057
:105950000000000000000000000000000000000047
:105960000000000000000000000000000000000037
:0C597000AAAAAAAA000000000000000083
:04000005080001519D
:00000001FF
